Component: ARM Compiler 5.06 update 5 (build 528) Tool: armlink [4d35e2]

==============================================================================

Section Cross References

    main.o(i.advertising_init) refers to memseta.o(.text) for __aeabi_memclr4
    main.o(i.advertising_init) refers to ble_advdata.o(i.ble_advdata_encode) for ble_advdata_encode
    main.o(i.advertising_init) refers to app_error.o(i.app_error_handler_bare) for app_error_handler_bare
    main.o(i.advertising_init) refers to main.o(.constdata) for .constdata
    main.o(i.advertising_init) refers to main.o(.bss) for .bss
    main.o(i.advertising_init) refers to main.o(.data) for .data
    main.o(i.advertising_start) refers to app_error.o(i.app_error_handler_bare) for app_error_handler_bare
    main.o(i.advertising_start) refers to boards.o(i.bsp_board_led_on) for bsp_board_led_on
    main.o(i.advertising_start) refers to main.o(.data) for .data
    main.o(i.assert_nrf_callback) refers to app_error_handler_keil.o(i.app_error_handler) for app_error_handler
    main.o(i.ble_evt_handler) refers to nrf_log_frontend.o(i.nrf_log_frontend_std_0) for nrf_log_frontend_std_0
    main.o(i.ble_evt_handler) refers to boards.o(i.bsp_board_led_on) for bsp_board_led_on
    main.o(i.ble_evt_handler) refers to boards.o(i.bsp_board_led_off) for bsp_board_led_off
    main.o(i.ble_evt_handler) refers to nrf_ble_qwr.o(i.nrf_ble_qwr_conn_handle_assign) for nrf_ble_qwr_conn_handle_assign
    main.o(i.ble_evt_handler) refers to app_error.o(i.app_error_handler_bare) for app_error_handler_bare
    main.o(i.ble_evt_handler) refers to app_button.o(i.app_button_enable) for app_button_enable
    main.o(i.ble_evt_handler) refers to app_button.o(i.app_button_disable) for app_button_disable
    main.o(i.ble_evt_handler) refers to main.o(i.advertising_start) for advertising_start
==============================================================================

Removing Unused input sections from the image.

    Removing main.o(.rev16_text), (4 bytes).
    Removing main.o(.revsh_text), (4 bytes).
    Removing main.o(.rrx_text), (6 bytes).
    Removing main.o(i.assert_nrf_callback), (16 bytes).
    Removing boards.o(.rev16_text), (4 bytes).
    Removing boards.o(.revsh_text), (4 bytes).
    Removing boards.o(.rrx_text), (6 bytes).
    Removing boards.o(i.bsp_board_button_idx_to_pin), (12 bytes).
    Removing boards.o(i.bsp_board_button_state_get), (32 bytes).
    Removing boards.o(i.bsp_board_led_idx_to_pin), (12 bytes).
    Removing boards.o(i.bsp_board_led_invert), (36 bytes).
    Removing boards.o(i.bsp_board_led_state_get), (32 bytes).
    Removing boards.o(i.bsp_board_leds_on), (18 bytes).
    Removing boards.o(i.bsp_board_pin_to_button_idx), (36 bytes).
    Removing boards.o(i.bsp_board_pin_to_led_idx), (36 bytes).
    Removing ble_advdata.o(.rev16_text), (4 bytes).
    Removing ble_advdata.o(.revsh_text), (4 bytes).
    Removing ble_advdata.o(.rrx_text), (6 bytes).
==============================================================================

Image Symbol Table

    Local Symbols

    Symbol Name                              Value     Ov Type        Size  Object(Section)

    ../clib/microlib/ctype/ctype.c           0x00000000   Number         0  isgraph_o.o ABSOLUTE
    ../clib/microlib/ctype/ctype.c           0x00000000   Number         0  iscntrl_o.o ABSOLUTE
    ../clib/microlib/ctype/ctype.c           0x00000000   Number         0  isxdigit_o.o ABSOLUTE
    ../clib/microlib/ctype/ctype.c           0x00000000   Number         0  isblank_o.o ABSOLUTE
    ../clib/microlib/ctype/ctype.c           0x00000000   Number         0  isupper_o.o ABSOLUTE
    ../clib/microlib/ctype/ctype.c           0x00000000   Number         0  isspace_o.o ABSOLUTE
    ../clib/microlib/ctype/ctype.c           0x00000000   Number         0  ispunct_o.o ABSOLUTE
    ../clib/microlib/ctype/ctype.c           0x00000000   Number         0  isdigit_o.o ABSOLUTE
    ../clib/microlib/ctype/ctype.c           0x00000000   Number         0  ctype_o.o ABSOLUTE
    ../clib/microlib/ctype/ctype.c           0x00000000   Number         0  isalpha_o.o ABSOLUTE
    ../clib/microlib/ctype/ctype.c           0x00000000   Number         0  isprint_o.o ABSOLUTE
    ../clib/microlib/ctype/ctype.c           0x00000000   Number         0  isalnum_o.o ABSOLUTE
    ../clib/microlib/ctype/ctype.c           0x00000000   Number         0  islower_o.o ABSOLUTE
    ../clib/microlib/init/entry.s            0x00000000   Number         0  entry8a.o ABSOLUTE
    ../clib/microlib/init/entry.s            0x00000000   Number         0  entry5.o ABSOLUTE
    ../clib/microlib/init/entry.s            0x00000000   Number         0  entry7a.o ABSOLUTE
    ../clib/microlib/init/entry.s            0x00000000   Number         0  entry.o ABSOLUTE
    ../clib/microlib/init/entry.s            0x00000000   Number         0  entry10a.o ABSOLUTE
    ../clib/microlib/init/entry.s            0x00000000   Number         0  entry7b.o ABSOLUTE
    ../clib/microlib/init/entry.s            0x00000000   Number         0  entry10b.o ABSOLUTE
    ../clib/microlib/init/entry.s            0x00000000   Number         0  entry11a.o ABSOLUTE
    ../clib/microlib/init/entry.s            0x00000000   Number         0  entry9b.o ABSOLUTE
    ../clib/microlib/init/entry.s            0x00000000   Number         0  entry11b.o ABSOLUTE
    ../clib/microlib/init/entry.s            0x00000000   Number         0  entry2.o ABSOLUTE
    ../clib/microlib/init/entry.s            0x00000000   Number         0  entry8b.o ABSOLUTE
    ../clib/microlib/init/entry.s            0x00000000   Number         0  entry9a.o ABSOLUTE
    ../clib/microlib/longlong.c              0x00000000   Number         0  llshl.o ABSOLUTE
    ../clib/microlib/string/memcmp.c         0x00000000   Number         0  memcmp.o ABSOLUTE
    ../clib/microlib/string/memcpy.c         0x00000000   Number         0  memcpyb.o ABSOLUTE
    ../clib/microlib/string/memcpy.c         0x00000000   Number         0  memcpya.o ABSOLUTE
    ../clib/microlib/string/memset.c         0x00000000   Number         0  memseta.o ABSOLUTE
    ../clib/microlib/string/strlen.c         0x00000000   Number         0  strlen.o ABSOLUTE
    C:\Keil_v5\ARM\PACK\NordicSemiconductor\nRF_Drivers\4.0.0-2.alpha\delay\nrf_delay.c 0x00000000   Number         0  nrf_delay.o ABSOLUTE
    C:\\Keil_v5\\ARM\\PACK\\NordicSemiconductor\\nRF_Drivers\\4.0.0-2.alpha\\delay\\nrf_delay.c 0x00000000   Number         0  nrf_delay.o ABSOLUTE
    RTE\Device\nRF52832_xxAA\arm_startup_nrf52.s 0x00000000   Number         0  arm_startup_nrf52.o ABSOLUTE
    RTE\Device\nRF52832_xxAA\system_nrf52.c  0x00000000   Number         0  system_nrf52.o ABSOLUTE
    RTE\\Device\\nRF52832_xxAA\\system_nrf52.c 0x00000000   Number         0  system_nrf52.o ABSOLUTE
    User\\main.c                             0x00000000   Number         0  main.o ABSOLUTE
    User\main.c                              0x00000000   Number         0  main.o ABSOLUTE
    components\\ble\\ble_services\\ble_lbs\\ble_lbs.c 0x00000000   Number         0  ble_lbs.o ABSOLUTE
    components\\ble\\common\\ble_advdata.c   0x00000000   Number         0  ble_advdata.o ABSOLUTE
    components\\ble\\common\\ble_conn_params.c 0x00000000   Number         0  ble_conn_params.o ABSOLUTE
    components\\ble\\common\\ble_conn_state.c 0x00000000   Number         0  ble_conn_state.o ABSOLUTE
    components\\ble\\common\\ble_srv_common.c 0x00000000   Number         0  ble_srv_common.o ABSOLUTE
    components\\ble\\nrf_ble_gatt\\nrf_ble_gatt.c 0x00000000   Number         0  nrf_ble_gatt.o ABSOLUTE
    components\\ble\\nrf_ble_qwr\\nrf_ble_qwr.c 0x00000000   Number         0  nrf_ble_qwr.o ABSOLUTE
    components\\boards\\boards.c             0x00000000   Number         0  boards.o ABSOLUTE
    components\\libraries\\atomic\\nrf_atomic.c 0x00000000   Number         0  nrf_atomic.o ABSOLUTE
    components\\libraries\\atomic_fifo\\nrf_atfifo.c 0x00000000   Number         0  nrf_atfifo.o ABSOLUTE
    components\\libraries\\atomic_flags\\nrf_atflags.c 0x00000000   Number         0  nrf_atflags.o ABSOLUTE
    components\\libraries\\balloc\\nrf_balloc.c 0x00000000   Number         0  nrf_balloc.o ABSOLUTE
    components\\libraries\\button\\app_button.c 0x00000000   Number         0  app_button.o ABSOLUTE
    components\\libraries\\experimental_section_vars\\nrf_section_iter.c 0x00000000   Number         0  nrf_section_iter.o ABSOLUTE
    components\\libraries\\log\\src\\nrf_log_backend_rtt.c 0x00000000   Number         0  nrf_log_backend_rtt.o ABSOLUTE
    components\\libraries\\log\\src\\nrf_log_backend_serial.c 0x00000000   Number         0  nrf_log_backend_serial.o ABSOLUTE
    components\\libraries\\log\\src\\nrf_log_backend_uart.c 0x00000000   Number         0  nrf_log_backend_uart.o ABSOLUTE
    components\\libraries\\log\\src\\nrf_log_default_backends.c 0x00000000   Number         0  nrf_log_default_backends.o ABSOLUTE
    components\\libraries\\log\\src\\nrf_log_frontend.c 0x00000000   Number         0  nrf_log_frontend.o ABSOLUTE
    components\\libraries\\log\\src\\nrf_log_str_formatter.c 0x00000000   Number         0  nrf_log_str_formatter.o ABSOLUTE
    components\\libraries\\memobj\\nrf_memobj.c 0x00000000   Number         0  nrf_memobj.o ABSOLUTE
    components\\libraries\\pwr_mgmt\\nrf_pwr_mgmt.c 0x00000000   Number         0  nrf_pwr_mgmt.o ABSOLUTE
    components\\libraries\\ringbuf\\nrf_ringbuf.c 0x00000000   Number         0  nrf_ringbuf.o ABSOLUTE
    components\\libraries\\sortlist\\nrf_sortlist.c 0x00000000   Number         0  nrf_sortlist.o ABSOLUTE
    components\\libraries\\strerror\\nrf_strerror.c 0x00000000   Number         0  nrf_strerror.o ABSOLUTE
    components\\libraries\\timer\\app_timer2.c 0x00000000   Number         0  app_timer2.o ABSOLUTE
    components\\libraries\\timer\\drv_rtc.c  0x00000000   Number         0  drv_rtc.o ABSOLUTE
    components\\libraries\\util\\app_error.c 0x00000000   Number         0  app_error.o ABSOLUTE
    components\\libraries\\util\\app_error_handler_keil.c 0x00000000   Number         0  app_error_handler_keil.o ABSOLUTE
    components\\libraries\\util\\app_error_weak.c 0x00000000   Number         0  app_error_weak.o ABSOLUTE
    components\\libraries\\util\\app_util_platform.c 0x00000000   Number         0  app_util_platform.o ABSOLUTE
    components\\softdevice\\common\\nrf_sdh.c 0x00000000   Number         0  nrf_sdh.o ABSOLUTE
    components\\softdevice\\common\\nrf_sdh_ble.c 0x00000000   Number         0  nrf_sdh_ble.o ABSOLUTE
    components\\softdevice\\common\\nrf_sdh_soc.c 0x00000000   Number         0  nrf_sdh_soc.o ABSOLUTE
    components\ble\ble_services\ble_lbs\ble_lbs.c 0x00000000   Number         0  ble_lbs.o ABSOLUTE
    components\ble\common\ble_advdata.c      0x00000000   Number         0  ble_advdata.o ABSOLUTE
    components\ble\common\ble_conn_params.c  0x00000000   Number         0  ble_conn_params.o ABSOLUTE
    components\ble\common\ble_conn_state.c   0x00000000   Number         0  ble_conn_state.o ABSOLUTE
    components\ble\common\ble_srv_common.c   0x00000000   Number         0  ble_srv_common.o ABSOLUTE
    components\ble\nrf_ble_gatt\nrf_ble_gatt.c 0x00000000   Number         0  nrf_ble_gatt.o ABSOLUTE
    components\ble\nrf_ble_qwr\nrf_ble_qwr.c 0x00000000   Number         0  nrf_ble_qwr.o ABSOLUTE
    components\boards\boards.c               0x00000000   Number         0  boards.o ABSOLUTE
    components\libraries\atomic\nrf_atomic.c 0x00000000   Number         0  nrf_atomic.o ABSOLUTE
    components\libraries\atomic_fifo\nrf_atfifo.c 0x00000000   Number         0  nrf_atfifo.o ABSOLUTE
    components\libraries\atomic_flags\nrf_atflags.c 0x00000000   Number         0  nrf_atflags.o ABSOLUTE
    components\libraries\balloc\nrf_balloc.c 0x00000000   Number         0  nrf_balloc.o ABSOLUTE
    components\libraries\button\app_button.c 0x00000000   Number         0  app_button.o ABSOLUTE
    components\libraries\experimental_section_vars\nrf_section_iter.c 0x00000000   Number         0  nrf_section_iter.o ABSOLUTE
    components\libraries\log\src\nrf_log_backend_rtt.c 0x00000000   Number         0  nrf_log_backend_rtt.o ABSOLUTE
    components\libraries\log\src\nrf_log_backend_serial.c 0x00000000   Number         0  nrf_log_backend_serial.o ABSOLUTE
    components\libraries\log\src\nrf_log_backend_uart.c 0x00000000   Number         0  nrf_log_backend_uart.o ABSOLUTE
    components\libraries\log\src\nrf_log_default_backends.c 0x00000000   Number         0  nrf_log_default_backends.o ABSOLUTE
    components\libraries\log\src\nrf_log_frontend.c 0x00000000   Number         0  nrf_log_frontend.o ABSOLUTE
    components\libraries\log\src\nrf_log_str_formatter.c 0x00000000   Number         0  nrf_log_str_formatter.o ABSOLUTE
    components\libraries\memobj\nrf_memobj.c 0x00000000   Number         0  nrf_memobj.o ABSOLUTE
    components\libraries\pwr_mgmt\nrf_pwr_mgmt.c 0x00000000   Number         0  nrf_pwr_mgmt.o ABSOLUTE
    components\libraries\ringbuf\nrf_ringbuf.c 0x00000000   Number         0  nrf_ringbuf.o ABSOLUTE
    components\libraries\sortlist\nrf_sortlist.c 0x00000000   Number         0  nrf_sortlist.o ABSOLUTE
    components\libraries\strerror\nrf_strerror.c 0x00000000   Number         0  nrf_strerror.o ABSOLUTE
    components\libraries\timer\app_timer2.c  0x00000000   Number         0  app_timer2.o ABSOLUTE
    components\libraries\timer\drv_rtc.c     0x00000000   Number         0  drv_rtc.o ABSOLUTE
    components\libraries\util\app_error.c    0x00000000   Number         0  app_error.o ABSOLUTE
    components\libraries\util\app_error_handler_keil.c 0x00000000   Number         0  app_error_handler_keil.o ABSOLUTE
    components\libraries\util\app_error_weak.c 0x00000000   Number         0  app_error_weak.o ABSOLUTE
    components\libraries\util\app_util_platform.c 0x00000000   Number         0  app_util_platform.o ABSOLUTE
    components\softdevice\common\nrf_sdh.c   0x00000000   Number         0  nrf_sdh.o ABSOLUTE
    components\softdevice\common\nrf_sdh_ble.c 0x00000000   Number         0  nrf_sdh_ble.o ABSOLUTE
    components\softdevice\common\nrf_sdh_soc.c 0x00000000   Number         0  nrf_sdh_soc.o ABSOLUTE
    dc.s                                     0x00000000   Number         0  dc.o ABSOLUTE
    external\\fprintf\\nrf_fprintf.c         0x00000000   Number         0  nrf_fprintf.o ABSOLUTE
    external\\fprintf\\nrf_fprintf_format.c  0x00000000   Number         0  nrf_fprintf_format.o ABSOLUTE
    external\fprintf\nrf_fprintf.c           0x00000000   Number         0  nrf_fprintf.o ABSOLUTE
    external\fprintf\nrf_fprintf_format.c    0x00000000   Number         0  nrf_fprintf_format.o ABSOLUTE
    handlers.s                               0x00000000   Number         0  handlers.o ABSOLUTE
    init.s                                   0x00000000   Number         0  init.o ABSOLUTE
    integration\\nrfx\\legacy\\nrf_drv_uart.c 0x00000000   Number         0  nrf_drv_uart.o ABSOLUTE
    integration\nrfx\legacy\nrf_drv_uart.c   0x00000000   Number         0  nrf_drv_uart.o ABSOLUTE
    modules\\nrfx\\drivers\\src\\nrfx_gpiote.c 0x00000000   Number         0  nrfx_gpiote.o ABSOLUTE
    modules\\nrfx\\drivers\\src\\nrfx_uart.c 0x00000000   Number         0  nrfx_uart.o ABSOLUTE
    modules\\nrfx\\drivers\\src\\nrfx_uarte.c 0x00000000   Number         0  nrfx_uarte.o ABSOLUTE
    modules\\nrfx\\drivers\\src\\prs\\nrfx_prs.c 0x00000000   Number         0  nrfx_prs.o ABSOLUTE
    modules\nrfx\drivers\src\nrfx_gpiote.c   0x00000000   Number         0  nrfx_gpiote.o ABSOLUTE
    modules\nrfx\drivers\src\nrfx_uart.c     0x00000000   Number         0  nrfx_uart.o ABSOLUTE
    modules\nrfx\drivers\src\nrfx_uarte.c    0x00000000   Number         0  nrfx_uarte.o ABSOLUTE
    modules\nrfx\drivers\src\prs\nrfx_prs.c  0x00000000   Number         0  nrfx_prs.o ABSOLUTE
    RESET                                    0x00026000   Section      512  arm_startup_nrf52.o(RESET)
    .ARM.Collect$$$$00000000                 0x00026200   Section        0  entry.o(.ARM.Collect$$$$00000000)
    .ARM.Collect$$$$00000001                 0x00026200   Section        4  entry2.o(.ARM.Collect$$$$00000001)
    .ARM.Collect$$$$00000004                 0x00026204   Section        4  entry5.o(.ARM.Collect$$$$00000004)
    .ARM.Collect$$$$00000008                 0x00026208   Section        0  entry7b.o(.ARM.Collect$$$$00000008)
    .ARM.Collect$$$$0000000A                 0x00026208   Section        0  entry8b.o(.ARM.Collect$$$$0000000A)
    .ARM.Collect$$$$0000000B                 0x00026208   Section        8  entry9a.o(.ARM.Collect$$$$0000000B)
    .ARM.Collect$$$$0000000D                 0x00026210   Section        0  entry10a.o(.ARM.Collect$$$$0000000D)
    .ARM.Collect$$$$0000000F                 0x00026210   Section        0  entry11a.o(.ARM.Collect$$$$0000000F)
    .ARM.Collect$$$$00002712                 0x00026210   Section        4  entry2.o(.ARM.Collect$$$$00002712)
    __lit__00000000                          0x00026210   Data           4  entry2.o(.ARM.Collect$$$$00002712)
    .emb_text                                0x00026214   Section      118  drv_rtc.o(.emb_text)
    $v0                                      0x00026214   Number         0  drv_rtc.o(.emb_text)
    .emb_text                                0x0002628c   Section      200  nrf_atfifo.o(.emb_text)
    $v0                                      0x0002628c   Number         0  nrf_atfifo.o(.emb_text)
    .emb_text                                0x00026354   Section      226  nrf_atomic.o(.emb_text)
    $v0                                      0x00026354   Number         0  nrf_atomic.o(.emb_text)
    .text                                    0x00026438   Section       36  arm_startup_nrf52.o(.text)
    $v0                                      0x00026438   Number         0  arm_startup_nrf52.o(.text)
    .text                                    0x0002645c   Section        0  llshl.o(.text)
    .text                                    0x0002647c   Section        0  ctype_o.o(.text)
    .text                                    0x00026484   Section        0  memcpya.o(.text)
    .text                                    0x000264a8   Section        0  memseta.o(.text)
    .text                                    0x000264cc   Section        0  strlen.o(.text)
    .text                                    0x000264dc   Section       36  init.o(.text)
    i.GPIOTE_IRQHandler                      0x00026500   Section        0  nrfx_gpiote.o(i.GPIOTE_IRQHandler)
    i.RTC1_IRQHandler                        0x00026664   Section        0  drv_rtc.o(i.RTC1_IRQHandler)
    i.SWI2_EGU2_IRQHandler                   0x00026674   Section        0  nrf_sdh.o(i.SWI2_EGU2_IRQHandler)
    i.SystemInit                             0x00026678   Section        0  system_nrf52.o(i.SystemInit)
    i.UARTE0_UART0_IRQHandler                0x000269a4   Section        0  nrfx_prs.o(i.UARTE0_UART0_IRQHandler)
    i.__scatterload_copy                     0x000269b0   Section       14  handlers.o(i.__scatterload_copy)
    i.__scatterload_null                     0x000269be   Section        2  handlers.o(i.__scatterload_null)
    i.__scatterload_zeroinit                 0x000269c0   Section       14  handlers.o(i.__scatterload_zeroinit)
    i.__sd_nvic_app_accessible_irq           0x000269d0   Section        0  nrf_sdh.o(i.__sd_nvic_app_accessible_irq)
    __sd_nvic_app_accessible_irq             0x000269d1   Thumb Code    32  nrf_sdh.o(i.__sd_nvic_app_accessible_irq)
    i.advertising_init                       0x000269f4   Section        0  main.o(i.advertising_init)
    advertising_init                         0x000269f5   Thumb Code   150  main.o(i.advertising_init)
    i.advertising_start                      0x00026a98   Section        0  main.o(i.advertising_start)
    advertising_start                        0x00026a99   Thumb Code    26  main.o(i.advertising_start)
    i.app_button_disable                     0x00026ab8   Section        0  app_button.o(i.app_button_disable)
    i.app_button_enable                      0x00026b00   Section        0  app_button.o(i.app_button_enable)
    i.app_button_init                        0x00026b24   Section        0  app_button.o(i.app_button_init)
    i.app_error_fault_handler                0x00026ba4   Section        0  app_error_weak.o(i.app_error_fault_handler)
    i.app_error_handler_bare                 0x00026c28   Section        0  app_error.o(i.app_error_handler_bare)
    i.app_timer_cnt_get                      0x00026c40   Section        0  app_timer2.o(i.app_timer_cnt_get)
    i.app_timer_create                       0x00026c4c   Section        0  app_timer2.o(i.app_timer_create)
    i.app_timer_init                         0x00026c64   Section        0  app_timer2.o(i.app_timer_init)
    i.app_timer_start                        0x00026cc0   Section        0  app_timer2.o(i.app_timer_start)
    i.app_timer_stop                         0x00026cf0   Section        0  app_timer2.o(i.app_timer_stop)
    i.app_util_critical_region_enter         0x00026cfc   Section        0  app_util_platform.o(i.app_util_critical_region_enter)
    i.app_util_critical_region_exit          0x00026d44   Section        0  app_util_platform.o(i.app_util_critical_region_exit)
    i.apply_config                           0x00026d78   Section        0  nrfx_uart.o(i.apply_config)
    apply_config                             0x00026d79   Thumb Code   136  nrfx_uart.o(i.apply_config)
    i.apply_config                           0x00026e00   Section        0  nrfx_uarte.o(i.apply_config)
    apply_config                             0x00026e01   Thumb Code   136  nrfx_uarte.o(i.apply_config)
    i.ble_advdata_encode                     0x00026e88   Section        0  ble_advdata.o(i.ble_advdata_encode)
    i.ble_conn_params_init                   0x0002700c   Section        0  ble_conn_params.o(i.ble_conn_params_init)
    i.ble_device_addr_encode                 0x00027074   Section        0  ble_advdata.o(i.ble_device_addr_encode)
    ble_device_addr_encode                   0x00027075   Thumb Code    96  ble_advdata.o(i.ble_device_addr_encode)
    i.ble_evt_handler                        0x000270d4   Section        0  main.o(i.ble_evt_handler)
    ble_evt_handler                          0x000270d5   Thumb Code   206  main.o(i.ble_evt_handler)
    i.ble_evt_handler                        0x000271d0   Section        0  ble_conn_params.o(i.ble_evt_handler)
    ble_evt_handler                          0x000271d1   Thumb Code   242  ble_conn_params.o(i.ble_evt_handler)
    i.ble_evt_handler                        0x000272cc   Section        0  ble_conn_state.o(i.ble_evt_handler)
    ble_evt_handler                          0x000272cd   Thumb Code   274  ble_conn_state.o(i.ble_evt_handler)
    i.ble_lbs_init                           0x000273e4   Section        0  ble_lbs.o(i.ble_lbs_init)
    i.ble_lbs_on_ble_evt                     0x000274a8   Section        0  ble_lbs.o(i.ble_lbs_on_ble_evt)
    i.ble_lbs_on_button_change               0x000274d6   Section        0  ble_lbs.o(i.ble_lbs_on_button_change)
    i.ble_srv_is_notification_enabled        0x00027504   Section        0  ble_srv_common.o(i.ble_srv_is_notification_enabled)
    i.bsp_board_init                         0x0002750c   Section        0  boards.o(i.bsp_board_init)
    i.bsp_board_led_off                      0x00027560   Section        0  boards.o(i.bsp_board_led_off)
    i.bsp_board_led_on                       0x00027570   Section        0  boards.o(i.bsp_board_led_on)
    i.bsp_board_leds_off                     0x00027580   Section        0  boards.o(i.bsp_board_leds_off)
    i.buf_prealloc                           0x00027594   Section        0  nrf_log_frontend.o(i.buf_prealloc)
    buf_prealloc                             0x00027595   Thumb Code   138  nrf_log_frontend.o(i.buf_prealloc)
    i.buffer_add                             0x00027624   Section        0  nrf_fprintf_format.o(i.buffer_add)
    buffer_add                               0x00027625   Thumb Code    46  nrf_fprintf_format.o(i.buffer_add)
    i.buffer_is_empty                        0x00027654   Section        0  nrf_log_frontend.o(i.buffer_is_empty)
    i.button_event_handler                   0x00027668   Section        0  main.o(i.button_event_handler)
    button_event_handler                     0x00027669   Thumb Code    74  main.o(i.button_event_handler)
    i.button_get                             0x000276e0   Section        0  app_button.o(i.button_get)
    button_get                               0x000276e1   Thumb Code    36  app_button.o(i.button_get)
    i.channel_free                           0x00027708   Section        0  nrfx_gpiote.o(i.channel_free)
    channel_free                             0x00027709   Thumb Code    22  nrfx_gpiote.o(i.channel_free)
    i.channel_port_alloc                     0x00027724   Section        0  nrfx_gpiote.o(i.channel_port_alloc)
    channel_port_alloc                       0x00027725   Thumb Code    66  nrfx_gpiote.o(i.channel_port_alloc)
    i.channel_port_get                       0x0002776c   Section        0  nrfx_gpiote.o(i.channel_port_get)
    channel_port_get                         0x0002776d   Thumb Code    10  nrfx_gpiote.o(i.channel_port_get)
    i.characteristic_add                     0x0002777c   Section        0  ble_srv_common.o(i.characteristic_add)
    i.compare_func                           0x0002790c   Section        0  app_timer2.o(i.compare_func)
    compare_func                             0x0002790d   Thumb Code    24  app_timer2.o(i.compare_func)
    i.conn_handle_list_get                   0x00027924   Section        0  ble_conn_state.o(i.conn_handle_list_get)
    i.conn_int_encode                        0x00027962   Section        0  ble_advdata.o(i.conn_int_encode)
    conn_int_encode                          0x00027963   Thumb Code   136  ble_advdata.o(i.conn_int_encode)
    i.conn_params_error_handler              0x000279ea   Section        0  main.o(i.conn_params_error_handler)
    conn_params_error_handler                0x000279eb   Thumb Code     4  main.o(i.conn_params_error_handler)
    i.conn_params_negotiation                0x000279f0   Section        0  ble_conn_params.o(i.conn_params_negotiation)
    conn_params_negotiation                  0x000279f1   Thumb Code    68  ble_conn_params.o(i.conn_params_negotiation)
    i.data_length_update                     0x00027a38   Section        0  nrf_ble_gatt.o(i.data_length_update)
    data_length_update                       0x00027a39   Thumb Code   110  nrf_ble_gatt.o(i.data_length_update)
    i.detection_delay_timeout_handler        0x00027af8   Section        0  app_button.o(i.detection_delay_timeout_handler)
    detection_delay_timeout_handler          0x00027af9   Thumb Code    66  app_button.o(i.detection_delay_timeout_handler)
    i.dropped_sat16_get                      0x00027b40   Section        0  nrf_log_frontend.o(i.dropped_sat16_get)
    dropped_sat16_get                        0x00027b41   Thumb Code    16  nrf_log_frontend.o(i.dropped_sat16_get)
    i.drv_rtc_compare_disable                0x00027b54   Section        0  drv_rtc.o(i.drv_rtc_compare_disable)
    i.drv_rtc_compare_pending                0x00027b68   Section        0  drv_rtc.o(i.drv_rtc_compare_pending)
    i.drv_rtc_compare_set                    0x00027b76   Section        0  drv_rtc.o(i.drv_rtc_compare_set)
    i.drv_rtc_counter_get                    0x00027bc6   Section        0  drv_rtc.o(i.drv_rtc_counter_get)
    i.drv_rtc_init                           0x00027bd0   Section        0  drv_rtc.o(i.drv_rtc_init)
    i.drv_rtc_irq_trigger                    0x00027ca8   Section        0  drv_rtc.o(i.drv_rtc_irq_trigger)
    i.drv_rtc_overflow_enable                0x00027cc6   Section        0  drv_rtc.o(i.drv_rtc_overflow_enable)
    i.drv_rtc_overflow_pending               0x00027cce   Section        0  drv_rtc.o(i.drv_rtc_overflow_pending)
    i.drv_rtc_start                          0x00027cd6   Section        0  drv_rtc.o(i.drv_rtc_start)
    i.drv_rtc_stop                           0x00027cde   Section        0  drv_rtc.o(i.drv_rtc_stop)
    i.drv_rtc_windowed_compare_set           0x00027ce6   Section        0  drv_rtc.o(i.drv_rtc_windowed_compare_set)
    i.evt_enable                             0x00027dc4   Section        0  drv_rtc.o(i.evt_enable)
    evt_enable                               0x00027dc5   Thumb Code    18  drv_rtc.o(i.evt_enable)
    i.evt_handle                             0x00027dd8   Section        0  app_button.o(i.evt_handle)
    i.evt_pending                            0x00027eb8   Section        0  drv_rtc.o(i.evt_pending)
    evt_pending                              0x00027eb9   Thumb Code    20  drv_rtc.o(i.evt_pending)
    i.flag_toggle                            0x00027ecc   Section        0  ble_conn_state.o(i.flag_toggle)
    flag_toggle                              0x00027ecd   Thumb Code    10  ble_conn_state.o(i.flag_toggle)
    i.get_now                                0x00027ed8   Section        0  app_timer2.o(i.get_now)
    get_now                                  0x00027ed9   Thumb Code    46  app_timer2.o(i.get_now)
    i.gpiote_event_handler                   0x00027f0c   Section        0  app_button.o(i.gpiote_event_handler)
    gpiote_event_handler                     0x00027f0d   Thumb Code    56  app_button.o(i.gpiote_event_handler)
    i.instance_get                           0x00027f48   Section        0  ble_conn_params.o(i.instance_get)
    instance_get                             0x00027f49   Thumb Code    14  ble_conn_params.o(i.instance_get)
    i.int_print                              0x00027f5c   Section        0  nrf_fprintf_format.o(i.int_print)
    int_print                                0x00027f5d   Thumb Code   166  nrf_fprintf_format.o(i.int_print)
    i.interrupts_enable                      0x00028004   Section        0  nrfx_uarte.o(i.interrupts_enable)
    interrupts_enable                        0x00028005   Thumb Code   132  nrfx_uarte.o(i.interrupts_enable)
    i.invalid_packets_omit                   0x0002808c   Section        0  nrf_log_frontend.o(i.invalid_packets_omit)
    invalid_packets_omit                     0x0002808d   Thumb Code    52  nrf_log_frontend.o(i.invalid_packets_omit)
    i.is_conn_params_ok                      0x000280c0   Section        0  ble_conn_params.o(i.is_conn_params_ok)
    is_conn_params_ok                        0x000280c1   Thumb Code    68  ble_conn_params.o(i.is_conn_params_ok)
    i.led_write_handler                      0x00028104   Section        0  main.o(i.led_write_handler)
    led_write_handler                        0x00028105   Thumb Code    48  main.o(i.led_write_handler)
    i.link_init                              0x00028164   Section        0  nrf_ble_gatt.o(i.link_init)
    link_init                                0x00028165   Thumb Code    20  nrf_ble_gatt.o(i.link_init)
    i.log_skip                               0x00028178   Section        0  nrf_log_frontend.o(i.log_skip)
    log_skip                                 0x00028179   Thumb Code   148  nrf_log_frontend.o(i.log_skip)
    i.main                                   0x00028214   Section        0  main.o(i.main)
    i.manuf_specific_data_encode             0x000283a8   Section        0  ble_advdata.o(i.manuf_specific_data_encode)
    manuf_specific_data_encode               0x000283a9   Thumb Code   100  ble_advdata.o(i.manuf_specific_data_encode)
    i.memobj_op                              0x0002840c   Section        0  nrf_memobj.o(i.memobj_op)
    memobj_op                                0x0002840d   Thumb Code   126  nrf_memobj.o(i.memobj_op)
    i.module_idx_get                         0x0002848c   Section        0  nrf_log_frontend.o(i.module_idx_get)
    module_idx_get                           0x0002848d   Thumb Code    42  nrf_log_frontend.o(i.module_idx_get)
    i.name_encode                            0x000284bc   Section        0  ble_advdata.o(i.name_encode)
    name_encode                              0x000284bd   Thumb Code   166  ble_advdata.o(i.name_encode)
    i.nrf_atfifo_init                        0x00028562   Section        0  nrf_atfifo.o(i.nrf_atfifo_init)
    i.nrf_atfifo_item_alloc                  0x00028588   Section        0  nrf_atfifo.o(i.nrf_atfifo_item_alloc)
    i.nrf_atfifo_item_free                   0x0002859e   Section        0  nrf_atfifo.o(i.nrf_atfifo_item_free)
    i.nrf_atfifo_item_get                    0x000285b4   Section        0  nrf_atfifo.o(i.nrf_atfifo_item_get)
    i.nrf_atfifo_item_put                    0x000285ca   Section        0  nrf_atfifo.o(i.nrf_atfifo_item_put)
    i.nrf_atflags_clear                      0x000285e0   Section        0  nrf_atflags.o(i.nrf_atflags_clear)
    i.nrf_atflags_get                        0x000285f6   Section        0  nrf_atflags.o(i.nrf_atflags_get)
    i.nrf_atflags_set                        0x0002860c   Section        0  nrf_atflags.o(i.nrf_atflags_set)
    i.nrf_atomic_flag_clear_fetch            0x00028620   Section        0  nrf_atomic.o(i.nrf_atomic_flag_clear_fetch)
    i.nrf_atomic_flag_set                    0x00028626   Section        0  nrf_atomic.o(i.nrf_atomic_flag_set)
    i.nrf_atomic_u32_add                     0x0002862c   Section        0  nrf_atomic.o(i.nrf_atomic_u32_add)
    i.nrf_atomic_u32_and                     0x00028638   Section        0  nrf_atomic.o(i.nrf_atomic_u32_and)
    i.nrf_atomic_u32_fetch_and               0x00028644   Section        0  nrf_atomic.o(i.nrf_atomic_u32_fetch_and)
    i.nrf_atomic_u32_fetch_store             0x0002864e   Section        0  nrf_atomic.o(i.nrf_atomic_u32_fetch_store)
    i.nrf_atomic_u32_or                      0x00028658   Section        0  nrf_atomic.o(i.nrf_atomic_u32_or)
    i.nrf_atomic_u32_sub                     0x00028664   Section        0  nrf_atomic.o(i.nrf_atomic_u32_sub)
    i.nrf_balloc_alloc                       0x00028670   Section        0  nrf_balloc.o(i.nrf_balloc_alloc)
    i.nrf_balloc_free                        0x000286b4   Section        0  nrf_balloc.o(i.nrf_balloc_free)
    i.nrf_balloc_init                        0x000286e4   Section        0  nrf_balloc.o(i.nrf_balloc_init)
    i.nrf_bitmask_bit_is_set                 0x00028714   Section        0  nrfx_gpiote.o(i.nrf_bitmask_bit_is_set)
    nrf_bitmask_bit_is_set                   0x00028715   Thumb Code    16  nrfx_gpiote.o(i.nrf_bitmask_bit_is_set)
    i.nrf_bitmask_bit_set                    0x00028724   Section        0  nrfx_gpiote.o(i.nrf_bitmask_bit_set)
    nrf_bitmask_bit_set                      0x00028725   Thumb Code    20  nrfx_gpiote.o(i.nrf_bitmask_bit_set)
    i.nrf_ble_gatt_init                      0x00028738   Section        0  nrf_ble_gatt.o(i.nrf_ble_gatt_init)
    i.nrf_ble_gatt_on_ble_evt                0x0002875c   Section        0  nrf_ble_gatt.o(i.nrf_ble_gatt_on_ble_evt)
    i.nrf_ble_qwr_conn_handle_assign         0x000288ac   Section        0  nrf_ble_qwr.o(i.nrf_ble_qwr_conn_handle_assign)
    i.nrf_ble_qwr_init                       0x000288c2   Section        0  nrf_ble_qwr.o(i.nrf_ble_qwr_init)
    i.nrf_ble_qwr_on_ble_evt                 0x000288e6   Section        0  nrf_ble_qwr.o(i.nrf_ble_qwr_on_ble_evt)
    i.nrf_drv_uart_init                      0x0002899c   Section        0  nrf_drv_uart.o(i.nrf_drv_uart_init)
    i.nrf_fprintf                            0x00028a04   Section        0  nrf_fprintf.o(i.nrf_fprintf)
    i.nrf_fprintf_buffer_flush               0x00028a1e   Section        0  nrf_fprintf.o(i.nrf_fprintf_buffer_flush)
    i.nrf_fprintf_fmt                        0x00028a36   Section        0  nrf_fprintf_format.o(i.nrf_fprintf_fmt)
    i.nrf_gpio_cfg                           0x00028c10   Section        0  boards.o(i.nrf_gpio_cfg)
    nrf_gpio_cfg                             0x00028c11   Thumb Code    36  boards.o(i.nrf_gpio_cfg)
    i.nrf_gpio_cfg                           0x00028c34   Section        0  nrfx_uart.o(i.nrf_gpio_cfg)
    nrf_gpio_cfg                             0x00028c35   Thumb Code    36  nrfx_uart.o(i.nrf_gpio_cfg)
    i.nrf_gpio_cfg                           0x00028c58   Section        0  nrfx_uarte.o(i.nrf_gpio_cfg)
    nrf_gpio_cfg                             0x00028c59   Thumb Code    36  nrfx_uarte.o(i.nrf_gpio_cfg)
    i.nrf_gpio_cfg                           0x00028c7c   Section        0  nrfx_gpiote.o(i.nrf_gpio_cfg)
    nrf_gpio_cfg                             0x00028c7d   Thumb Code    36  nrfx_gpiote.o(i.nrf_gpio_cfg)
    i.nrf_gpio_cfg_default                   0x00028ca0   Section        0  nrfx_uart.o(i.nrf_gpio_cfg_default)
    nrf_gpio_cfg_default                     0x00028ca1   Thumb Code    18  nrfx_uart.o(i.nrf_gpio_cfg_default)
    i.nrf_gpio_cfg_default                   0x00028cb2   Section        0  nrfx_uarte.o(i.nrf_gpio_cfg_default)
    nrf_gpio_cfg_default                     0x00028cb3   Thumb Code    18  nrfx_uarte.o(i.nrf_gpio_cfg_default)
    i.nrf_gpio_cfg_input                     0x00028cc4   Section        0  nrfx_uart.o(i.nrf_gpio_cfg_input)
    nrf_gpio_cfg_input                       0x00028cc5   Thumb Code    18  nrfx_uart.o(i.nrf_gpio_cfg_input)
    i.nrf_gpio_cfg_input                     0x00028cd6   Section        0  nrfx_uarte.o(i.nrf_gpio_cfg_input)
    nrf_gpio_cfg_input                       0x00028cd7   Thumb Code    18  nrfx_uarte.o(i.nrf_gpio_cfg_input)
    i.nrf_gpio_cfg_output                    0x00028ce8   Section        0  nrfx_uart.o(i.nrf_gpio_cfg_output)
    nrf_gpio_cfg_output                      0x00028ce9   Thumb Code    20  nrfx_uart.o(i.nrf_gpio_cfg_output)
    i.nrf_gpio_cfg_output                    0x00028cfc   Section        0  nrfx_uarte.o(i.nrf_gpio_cfg_output)
    nrf_gpio_cfg_output                      0x00028cfd   Thumb Code    20  nrfx_uarte.o(i.nrf_gpio_cfg_output)
    i.nrf_gpio_cfg_sense_set                 0x00028d10   Section        0  nrfx_gpiote.o(i.nrf_gpio_cfg_sense_set)
    nrf_gpio_cfg_sense_set                   0x00028d11   Thumb Code    34  nrfx_gpiote.o(i.nrf_gpio_cfg_sense_set)
    i.nrf_gpio_pin_write                     0x00028d32   Section        0  boards.o(i.nrf_gpio_pin_write)
    nrf_gpio_pin_write                       0x00028d33   Thumb Code    22  boards.o(i.nrf_gpio_pin_write)
    i.nrf_gpio_ports_read                    0x00028d48   Section        0  nrfx_gpiote.o(i.nrf_gpio_ports_read)
    nrf_gpio_ports_read                      0x00028d49   Thumb Code    34  nrfx_gpiote.o(i.nrf_gpio_ports_read)
    i.nrf_gpiote_event_clear                 0x00028d70   Section        0  nrfx_gpiote.o(i.nrf_gpiote_event_clear)
    nrf_gpiote_event_clear                   0x00028d71   Thumb Code    16  nrfx_gpiote.o(i.nrf_gpiote_event_clear)
    i.nrf_gpiote_event_is_set                0x00028d84   Section        0  nrfx_gpiote.o(i.nrf_gpiote_event_is_set)
    nrf_gpiote_event_is_set                  0x00028d85   Thumb Code    12  nrfx_gpiote.o(i.nrf_gpiote_event_is_set)
    i.nrf_log_backend_add                    0x00028d94   Section        0  nrf_log_frontend.o(i.nrf_log_backend_add)
    i.nrf_log_backend_serial_put             0x00028df0   Section        0  nrf_log_backend_serial.o(i.nrf_log_backend_serial_put)
    i.nrf_log_backend_uart_flush             0x00028eb8   Section        0  nrf_log_backend_uart.o(i.nrf_log_backend_uart_flush)
    nrf_log_backend_uart_flush               0x00028eb9   Thumb Code     2  nrf_log_backend_uart.o(i.nrf_log_backend_uart_flush)
    i.nrf_log_backend_uart_init              0x00028eba   Section        0  nrf_log_backend_uart.o(i.nrf_log_backend_uart_init)
    i.nrf_log_backend_uart_panic_set         0x00028ec0   Section        0  nrf_log_backend_uart.o(i.nrf_log_backend_uart_panic_set)
    nrf_log_backend_uart_panic_set           0x00028ec1   Thumb Code    36  nrf_log_backend_uart.o(i.nrf_log_backend_uart_panic_set)
    i.nrf_log_backend_uart_put               0x00028eec   Section        0  nrf_log_backend_uart.o(i.nrf_log_backend_uart_put)
    nrf_log_backend_uart_put                 0x00028eed   Thumb Code    16  nrf_log_backend_uart.o(i.nrf_log_backend_uart_put)
    i.nrf_log_color_id_get                   0x00028f04   Section        0  nrf_log_frontend.o(i.nrf_log_color_id_get)
    i.nrf_log_default_backends_init          0x00028f34   Section        0  nrf_log_default_backends.o(i.nrf_log_default_backends_init)
    i.nrf_log_frontend_dequeue               0x00028f50   Section        0  nrf_log_frontend.o(i.nrf_log_frontend_dequeue)
    i.nrf_log_frontend_std_0                 0x00029184   Section        0  nrf_log_frontend.o(i.nrf_log_frontend_std_0)
    i.nrf_log_frontend_std_1                 0x0002918c   Section        0  nrf_log_frontend.o(i.nrf_log_frontend_std_1)
    i.nrf_log_frontend_std_2                 0x0002919a   Section        0  nrf_log_frontend.o(i.nrf_log_frontend_std_2)
    i.nrf_log_hexdump_entry_process          0x000291ac   Section        0  nrf_log_str_formatter.o(i.nrf_log_hexdump_entry_process)
    i.nrf_log_init                           0x0002925c   Section        0  nrf_log_frontend.o(i.nrf_log_init)
    i.nrf_log_module_cnt_get                 0x00029298   Section        0  nrf_log_frontend.o(i.nrf_log_module_cnt_get)
    i.nrf_log_module_name_get                0x000292ac   Section        0  nrf_log_frontend.o(i.nrf_log_module_name_get)
    i.nrf_log_panic                          0x000292c8   Section        0  nrf_log_frontend.o(i.nrf_log_panic)
    i.nrf_log_std_entry_process              0x000292f4   Section        0  nrf_log_str_formatter.o(i.nrf_log_std_entry_process)
    i.nrf_memobj_alloc                       0x000293aa   Section        0  nrf_memobj.o(i.nrf_memobj_alloc)
    i.nrf_memobj_free                        0x0002940a   Section        0  nrf_memobj.o(i.nrf_memobj_free)
    i.nrf_memobj_get                         0x0002943c   Section        0  nrf_memobj.o(i.nrf_memobj_get)
    i.nrf_memobj_pool_init                   0x00029444   Section        0  nrf_memobj.o(i.nrf_memobj_pool_init)
    i.nrf_memobj_put                         0x00029448   Section        0  nrf_memobj.o(i.nrf_memobj_put)
    i.nrf_memobj_read                        0x00029466   Section        0  nrf_memobj.o(i.nrf_memobj_read)
    i.nrf_memobj_write                       0x00029476   Section        0  nrf_memobj.o(i.nrf_memobj_write)
    i.nrf_pwr_mgmt_init                      0x00029488   Section        0  nrf_pwr_mgmt.o(i.nrf_pwr_mgmt_init)
    i.nrf_pwr_mgmt_run                       0x000294b0   Section        0  nrf_pwr_mgmt.o(i.nrf_pwr_mgmt_run)
    i.nrf_qwr_error_handler                  0x000294f4   Section        0  main.o(i.nrf_qwr_error_handler)
    nrf_qwr_error_handler                    0x000294f5   Thumb Code     4  main.o(i.nrf_qwr_error_handler)
    i.nrf_ringbuf_init                       0x000294f8   Section        0  nrf_ringbuf.o(i.nrf_ringbuf_init)
    i.nrf_rtc_event_clear                    0x00029514   Section        0  drv_rtc.o(i.nrf_rtc_event_clear)
    nrf_rtc_event_clear                      0x00029515   Thumb Code    12  drv_rtc.o(i.nrf_rtc_event_clear)
    i.nrf_sdh_ble_app_ram_start_get          0x00029520   Section        0  nrf_sdh_ble.o(i.nrf_sdh_ble_app_ram_start_get)
    i.nrf_sdh_ble_default_cfg_set            0x00029534   Section        0  nrf_sdh_ble.o(i.nrf_sdh_ble_default_cfg_set)
    i.nrf_sdh_ble_enable                     0x00029634   Section        0  nrf_sdh_ble.o(i.nrf_sdh_ble_enable)
    i.nrf_sdh_ble_evts_poll                  0x00029764   Section        0  nrf_sdh_ble.o(i.nrf_sdh_ble_evts_poll)
    nrf_sdh_ble_evts_poll                    0x00029765   Thumb Code    82  nrf_sdh_ble.o(i.nrf_sdh_ble_evts_poll)
    i.nrf_sdh_enable_request                 0x000297c0   Section        0  nrf_sdh.o(i.nrf_sdh_enable_request)
    i.nrf_sdh_evts_poll                      0x00029834   Section        0  nrf_sdh.o(i.nrf_sdh_evts_poll)
    i.nrf_sdh_is_enabled                     0x00029858   Section        0  nrf_sdh.o(i.nrf_sdh_is_enabled)
    i.nrf_sdh_soc_evts_poll                  0x00029864   Section        0  nrf_sdh_soc.o(i.nrf_sdh_soc_evts_poll)
    nrf_sdh_soc_evts_poll                    0x00029865   Thumb Code    56  nrf_sdh_soc.o(i.nrf_sdh_soc_evts_poll)
    i.nrf_section_iter_init                  0x000298a0   Section        0  nrf_section_iter.o(i.nrf_section_iter_init)
    i.nrf_section_iter_item_set              0x000298aa   Section        0  nrf_section_iter.o(i.nrf_section_iter_item_set)
    nrf_section_iter_item_set                0x000298ab   Thumb Code    36  nrf_section_iter.o(i.nrf_section_iter_item_set)
    i.nrf_section_iter_next                  0x000298ce   Section        0  nrf_section_iter.o(i.nrf_section_iter_next)
    i.nrf_sortlist_add                       0x000298ee   Section        0  nrf_sortlist.o(i.nrf_sortlist_add)
    i.nrf_sortlist_peek                      0x00029910   Section        0  nrf_sortlist.o(i.nrf_sortlist_peek)
    i.nrf_sortlist_pop                       0x00029916   Section        0  nrf_sortlist.o(i.nrf_sortlist_pop)
    i.nrf_sortlist_remove                    0x00029924   Section        0  nrf_sortlist.o(i.nrf_sortlist_remove)
    i.nrf_strerror_find                      0x00029944   Section        0  nrf_strerror.o(i.nrf_strerror_find)
    i.nrf_strerror_get                       0x0002997c   Section        0  nrf_strerror.o(i.nrf_strerror_get)
    i.nrf_uart_event_check                   0x00029990   Section        0  nrfx_uart.o(i.nrf_uart_event_check)
    nrf_uart_event_check                     0x00029991   Thumb Code    10  nrfx_uart.o(i.nrf_uart_event_check)
    i.nrf_uart_event_clear                   0x0002999a   Section        0  nrfx_uart.o(i.nrf_uart_event_clear)
    nrf_uart_event_clear                     0x0002999b   Thumb Code    12  nrfx_uart.o(i.nrf_uart_event_clear)
    i.nrf_uart_int_enable_check              0x000299a6   Section        0  nrfx_uart.o(i.nrf_uart_int_enable_check)
    nrf_uart_int_enable_check                0x000299a7   Thumb Code    12  nrfx_uart.o(i.nrf_uart_int_enable_check)
    i.nrf_uarte_event_check                  0x000299b2   Section        0  nrfx_uarte.o(i.nrf_uarte_event_check)
    nrf_uarte_event_check                    0x000299b3   Thumb Code    10  nrfx_uarte.o(i.nrf_uarte_event_check)
    i.nrf_uarte_event_clear                  0x000299bc   Section        0  nrfx_uarte.o(i.nrf_uarte_event_clear)
    nrf_uarte_event_clear                    0x000299bd   Thumb Code    12  nrfx_uarte.o(i.nrf_uarte_event_clear)
    i.nrfx_gpiote_in_event_disable           0x000299c8   Section        0  nrfx_gpiote.o(i.nrfx_gpiote_in_event_disable)
    i.nrfx_gpiote_in_event_enable            0x00029a10   Section        0  nrfx_gpiote.o(i.nrfx_gpiote_in_event_enable)
    i.nrfx_gpiote_in_init                    0x00029ab4   Section        0  nrfx_gpiote.o(i.nrfx_gpiote_in_init)
    i.nrfx_gpiote_in_is_set                  0x00029b84   Section        0  nrfx_gpiote.o(i.nrfx_gpiote_in_is_set)
    i.nrfx_gpiote_init                       0x00029b98   Section        0  nrfx_gpiote.o(i.nrfx_gpiote_init)
    i.nrfx_gpiote_is_init                    0x00029c04   Section        0  nrfx_gpiote.o(i.nrfx_gpiote_is_init)
    i.nrfx_is_in_ram                         0x00029c18   Section        0  nrfx_uarte.o(i.nrfx_is_in_ram)
    nrfx_is_in_ram                           0x00029c19   Thumb Code    16  nrfx_uarte.o(i.nrfx_is_in_ram)
    i.nrfx_prs_acquire                       0x00029c28   Section        0  nrfx_prs.o(i.nrfx_prs_acquire)
    i.nrfx_prs_release                       0x00029c62   Section        0  nrfx_prs.o(i.nrfx_prs_release)
    i.nrfx_uart_0_irq_handler                0x00029c74   Section        0  nrfx_uart.o(i.nrfx_uart_0_irq_handler)
    i.nrfx_uart_init                         0x00029c84   Section        0  nrfx_uart.o(i.nrfx_uart_init)
    i.nrfx_uart_tx                           0x00029d58   Section        0  nrfx_uart.o(i.nrfx_uart_tx)
    i.nrfx_uart_tx_in_progress               0x00029e00   Section        0  nrfx_uart.o(i.nrfx_uart_tx_in_progress)
    i.nrfx_uart_uninit                       0x00029e20   Section        0  nrfx_uart.o(i.nrfx_uart_uninit)
    i.nrfx_uarte_0_irq_handler               0x00029ee0   Section        0  nrfx_uarte.o(i.nrfx_uarte_0_irq_handler)
    i.nrfx_uarte_init                        0x00029ef0   Section        0  nrfx_uarte.o(i.nrfx_uarte_init)
    i.nrfx_uarte_tx                          0x00029f5c   Section        0  nrfx_uarte.o(i.nrfx_uarte_tx)
    i.nrfx_uarte_tx_in_progress              0x0002a008   Section        0  nrfx_uarte.o(i.nrfx_uarte_tx_in_progress)
    i.nrfx_uarte_uninit                      0x0002a024   Section        0  nrfx_uarte.o(i.nrfx_uarte_uninit)
    i.on_conn_params_evt                     0x0002a110   Section        0  main.o(i.on_conn_params_evt)
    on_conn_params_evt                       0x0002a111   Thumb Code    24  main.o(i.on_conn_params_evt)
    i.on_connected_evt                       0x0002a12c   Section        0  nrf_ble_gatt.o(i.on_connected_evt)
    on_connected_evt                         0x0002a12d   Thumb Code   106  nrf_ble_gatt.o(i.on_connected_evt)
    i.on_exchange_mtu_request_evt            0x0002a1d4   Section        0  nrf_ble_gatt.o(i.on_exchange_mtu_request_evt)
    on_exchange_mtu_request_evt              0x0002a1d5   Thumb Code   110  nrf_ble_gatt.o(i.on_exchange_mtu_request_evt)
    i.pin_in_use_by_port                     0x0002a280   Section        0  nrfx_gpiote.o(i.pin_in_use_by_port)
    pin_in_use_by_port                       0x0002a281   Thumb Code    20  nrfx_gpiote.o(i.pin_in_use_by_port)
    i.pin_in_use_by_te                       0x0002a298   Section        0  nrfx_gpiote.o(i.pin_in_use_by_te)
    pin_in_use_by_te                         0x0002a299   Thumb Code    20  nrfx_gpiote.o(i.pin_in_use_by_te)
    i.postfix_process                        0x0002a2b0   Section        0  nrf_log_str_formatter.o(i.postfix_process)
    postfix_process                          0x0002a2b1   Thumb Code    48  nrf_log_str_formatter.o(i.postfix_process)
    i.prefix_process                         0x0002a2ec   Section        0  nrf_log_str_formatter.o(i.prefix_process)
    prefix_process                           0x0002a2ed   Thumb Code    90  nrf_log_str_formatter.o(i.prefix_process)
    i.prs_box_get                            0x0002a384   Section        0  nrfx_prs.o(i.prs_box_get)
    prs_box_get                              0x0002a385   Thumb Code    14  nrfx_prs.o(i.prs_box_get)
    i.rtc_irq                                0x0002a39c   Section        0  app_timer2.o(i.rtc_irq)
    rtc_irq                                  0x0002a39d   Thumb Code    88  app_timer2.o(i.rtc_irq)
    i.rtc_schedule                           0x0002a3f8   Section        0  app_timer2.o(i.rtc_schedule)
    rtc_schedule                             0x0002a3f9   Thumb Code    92  app_timer2.o(i.rtc_schedule)
    i.rtc_update                             0x0002a45c   Section        0  app_timer2.o(i.rtc_update)
    rtc_update                               0x0002a45d   Thumb Code   108  app_timer2.o(i.rtc_update)
    i.rx_byte                                0x0002a4d0   Section        0  nrfx_uart.o(i.rx_byte)
    rx_byte                                  0x0002a4d1   Thumb Code    50  nrfx_uart.o(i.rx_byte)
    i.rx_done_event                          0x0002a502   Section        0  nrfx_uart.o(i.rx_done_event)
    rx_done_event                            0x0002a503   Thumb Code    22  nrfx_uart.o(i.rx_done_event)
    i.rx_done_event                          0x0002a518   Section        0  nrfx_uarte.o(i.rx_done_event)
    rx_done_event                            0x0002a519   Thumb Code    22  nrfx_uarte.o(i.rx_done_event)
    i.sdh_request_observer_notify            0x0002a530   Section        0  nrf_sdh.o(i.sdh_request_observer_notify)
    sdh_request_observer_notify              0x0002a531   Thumb Code    44  nrf_sdh.o(i.sdh_request_observer_notify)
    i.sdh_state_observer_notify              0x0002a560   Section        0  nrf_sdh.o(i.sdh_state_observer_notify)
    sdh_state_observer_notify                0x0002a561   Thumb Code    38  nrf_sdh.o(i.sdh_state_observer_notify)
    i.send_error_evt                         0x0002a58c   Section        0  ble_conn_params.o(i.send_error_evt)
    send_error_evt                           0x0002a58d   Thumb Code    12  ble_conn_params.o(i.send_error_evt)
    i.serial_tx                              0x0002a59c   Section        0  nrf_log_backend_uart.o(i.serial_tx)
    serial_tx                                0x0002a59d   Thumb Code    54  nrf_log_backend_uart.o(i.serial_tx)
    i.service_data_encode                    0x0002a5dc   Section        0  ble_advdata.o(i.service_data_encode)
    service_data_encode                      0x0002a5dd   Thumb Code   136  ble_advdata.o(i.service_data_encode)
    i.set_security_req                       0x0002a664   Section        0  ble_srv_common.o(i.set_security_req)
    set_security_req                         0x0002a665   Thumb Code    48  ble_srv_common.o(i.set_security_req)
    i.softdevices_evt_irq_enable             0x0002a694   Section        0  nrf_sdh.o(i.softdevices_evt_irq_enable)
    softdevices_evt_irq_enable               0x0002a695   Thumb Code    80  nrf_sdh.o(i.softdevices_evt_irq_enable)
    i.sortlist_pop                           0x0002a6ec   Section        0  app_timer2.o(i.sortlist_pop)
    sortlist_pop                             0x0002a6ed   Thumb Code     6  app_timer2.o(i.sortlist_pop)
    i.state_set                              0x0002a6f8   Section        0  app_button.o(i.state_set)
    state_set                                0x0002a6f9   Thumb Code    44  app_button.o(i.state_set)
    i.std_n                                  0x0002a728   Section        0  nrf_log_frontend.o(i.std_n)
    std_n                                    0x0002a729   Thumb Code   136  nrf_log_frontend.o(i.std_n)
    i.timer_expire                           0x0002a7b4   Section        0  app_timer2.o(i.timer_expire)
    timer_expire                             0x0002a7b5   Thumb Code    80  app_timer2.o(i.timer_expire)
    i.timer_req_process                      0x0002a80c   Section        0  app_timer2.o(i.timer_req_process)
    timer_req_process                        0x0002a80d   Thumb Code   110  app_timer2.o(i.timer_req_process)
    i.timer_req_schedule                     0x0002a884   Section        0  app_timer2.o(i.timer_req_schedule)
    timer_req_schedule                       0x0002a885   Thumb Code    46  app_timer2.o(i.timer_req_schedule)
    i.timer_start                            0x0002a8bc   Section        0  app_button.o(i.timer_start)
    timer_start                              0x0002a8bd   Thumb Code    16  app_button.o(i.timer_start)
    i.tx_byte                                0x0002a8d4   Section        0  nrfx_uart.o(i.tx_byte)
    tx_byte                                  0x0002a8d5   Thumb Code    32  nrfx_uart.o(i.tx_byte)
    i.tx_done_event                          0x0002a8f4   Section        0  nrfx_uart.o(i.tx_done_event)
    tx_done_event                            0x0002a8f5   Thumb Code    26  nrfx_uart.o(i.tx_done_event)
    i.tx_done_event                          0x0002a90e   Section        0  nrfx_uarte.o(i.tx_done_event)
    tx_done_event                            0x0002a90f   Thumb Code    26  nrfx_uarte.o(i.tx_done_event)
    i.uart_evt_handler                       0x0002a928   Section        0  nrf_drv_uart.o(i.uart_evt_handler)
    uart_evt_handler                         0x0002a929   Thumb Code    42  nrf_drv_uart.o(i.uart_evt_handler)
    i.uart_evt_handler                       0x0002a958   Section        0  nrf_log_backend_uart.o(i.uart_evt_handler)
    uart_evt_handler                         0x0002a959   Thumb Code     8  nrf_log_backend_uart.o(i.uart_evt_handler)
    i.uart_init                              0x0002a964   Section        0  nrf_log_backend_uart.o(i.uart_init)
    uart_init                                0x0002a965   Thumb Code    66  nrf_log_backend_uart.o(i.uart_init)
    i.uart_irq_handler                       0x0002a9b4   Section        0  nrfx_uart.o(i.uart_irq_handler)
    uart_irq_handler                         0x0002a9b5   Thumb Code   298  nrfx_uart.o(i.uart_irq_handler)
    i.uarte_evt_handler                      0x0002aae0   Section        0  nrf_drv_uart.o(i.uarte_evt_handler)
    uarte_evt_handler                        0x0002aae1   Thumb Code    42  nrf_drv_uart.o(i.uarte_evt_handler)
    i.uarte_irq_handler                      0x0002ab10   Section        0  nrfx_uarte.o(i.uarte_irq_handler)
    uarte_irq_handler                        0x0002ab11   Thumb Code   274  nrfx_uarte.o(i.uarte_irq_handler)
    i.uint16_encode                          0x0002ac22   Section        0  ble_advdata.o(i.uint16_encode)
    uint16_encode                            0x0002ac23   Thumb Code    10  ble_advdata.o(i.uint16_encode)
    i.unsigned_print                         0x0002ac2c   Section        0  nrf_fprintf_format.o(i.unsigned_print)
    unsigned_print                           0x0002ac2d   Thumb Code   176  nrf_fprintf_format.o(i.unsigned_print)
    i.update_timeout_handler                 0x0002ace0   Section        0  ble_conn_params.o(i.update_timeout_handler)
    update_timeout_handler                   0x0002ace1   Thumb Code    98  ble_conn_params.o(i.update_timeout_handler)
    i.user_mem_reply                         0x0002ad48   Section        0  nrf_ble_qwr.o(i.user_mem_reply)
    user_mem_reply                           0x0002ad49   Thumb Code    36  nrf_ble_qwr.o(i.user_mem_reply)
    i.usr_event                              0x0002ad6c   Section        0  app_button.o(i.usr_event)
    usr_event                                0x0002ad6d   Thumb Code    32  app_button.o(i.usr_event)
    i.uuid_list_encode                       0x0002ad8c   Section        0  ble_advdata.o(i.uuid_list_encode)
    uuid_list_encode                         0x0002ad8d   Thumb Code    48  ble_advdata.o(i.uuid_list_encode)
    i.uuid_list_sized_encode                 0x0002adbc   Section        0  ble_advdata.o(i.uuid_list_sized_encode)
    uuid_list_sized_encode                   0x0002adbd   Thumb Code   158  ble_advdata.o(i.uuid_list_sized_encode)
    .constdata                               0x0002ae5c   Section        4  main.o(.constdata)
    .constdata                               0x0002ae60   Section        8  boards.o(.constdata)
    m_board_led_list                         0x0002ae60   Data           4  boards.o(.constdata)
    m_board_btn_list                         0x0002ae64   Data           4  boards.o(.constdata)
    .constdata                               0x0002ae68   Section       22  nrf_ble_gatt.o(.constdata)
    .constdata                               0x0002ae80   Section       16  ble_lbs.o(.constdata)
    .constdata                               0x0002ae90   Section       16  nrf_sdh.o(.constdata)
    sdh_req_observers_array                  0x0002ae90   Data          16  nrf_sdh.o(.constdata)
    .constdata                               0x0002aea0   Section       40  nrf_sdh.o(.constdata)
    sdh_req_observers                        0x0002aea4   Data          12  nrf_sdh.o(.constdata)
    sdh_state_observers                      0x0002aeb0   Data          12  nrf_sdh.o(.constdata)
    sdh_stack_observers                      0x0002aebc   Data          12  nrf_sdh.o(.constdata)
    .constdata                               0x0002aec8   Section       16  nrf_sdh.o(.constdata)
    sdh_state_observers_array                0x0002aec8   Data          16  nrf_sdh.o(.constdata)
    .constdata                               0x0002aed8   Section       16  nrf_sdh.o(.constdata)
    sdh_stack_observers_array                0x0002aed8   Data          16  nrf_sdh.o(.constdata)
    .constdata                               0x0002aee8   Section       32  nrf_sdh_ble.o(.constdata)
    sdh_ble_observers_array                  0x0002aee8   Data          32  nrf_sdh_ble.o(.constdata)
    .constdata                               0x0002af08   Section       16  nrf_sdh_ble.o(.constdata)
    sdh_ble_observers                        0x0002af0c   Data          12  nrf_sdh_ble.o(.constdata)
    .constdata                               0x0002af18   Section       16  nrf_sdh_soc.o(.constdata)
    sdh_soc_observers_array                  0x0002af18   Data          16  nrf_sdh_soc.o(.constdata)
    .constdata                               0x0002af28   Section       12  nrf_sdh_soc.o(.constdata)
    sdh_soc_observers                        0x0002af28   Data          12  nrf_sdh_soc.o(.constdata)
    .constdata                               0x0002af34   Section        4  nrfx_uart.o(.constdata)
    irq_handlers                             0x0002af34   Data           4  nrfx_uart.o(.constdata)
    .constdata                               0x0002af38   Section        4  nrfx_uarte.o(.constdata)
    irq_handlers                             0x0002af38   Data           4  nrfx_uarte.o(.constdata)
    .constdata                               0x0002af3c   Section        4  nrfx_gpiote.o(.constdata)
    .constdata                               0x0002af40   Section       20  app_timer2.o(.constdata)
    m_req_fifo                               0x0002af40   Data           4  app_timer2.o(.constdata)
    m_app_timer_sortlist                     0x0002af48   Data          12  app_timer2.o(.constdata)
    .constdata                               0x0002af54   Section      316  nrf_strerror.o(.constdata)
    m_unknown_str                            0x0002af54   Data          19  nrf_strerror.o(.constdata)
    nrf_strerror_array                       0x0002af68   Data         296  nrf_strerror.o(.constdata)
    .constdata                               0x0002b090   Section       16  nrf_fprintf_format.o(.constdata)
    _aV2C                                    0x0002b090   Data          16  nrf_fprintf_format.o(.constdata)
    .constdata                               0x0002b0a0   Section       24  nrf_pwr_mgmt.o(.constdata)
    pwr_mgmt_data_array                      0x0002b0a0   Data          24  nrf_pwr_mgmt.o(.constdata)
    .constdata                               0x0002b0b8   Section       12  nrf_pwr_mgmt.o(.constdata)
    pwr_mgmt_data                            0x0002b0b8   Data          12  nrf_pwr_mgmt.o(.constdata)
    .constdata                               0x0002b0c4   Section        8  app_button.o(.constdata)
    m_detection_delay_timer_id               0x0002b0c8   Data           4  app_button.o(.constdata)
    .constdata                               0x0002b0cc   Section       12  nrf_log_backend_uart.o(.constdata)
    .constdata                               0x0002b0d8   Section       32  nrf_log_backend_uart.o(.constdata)
    .constdata                               0x0002b0f8   Section       12  nrf_log_frontend.o(.constdata)
    m_log_push_ringbuf                       0x0002b0f8   Data          12  nrf_log_frontend.o(.constdata)
    .constdata                               0x0002b104   Section      129  ctype_o.o(.constdata)
    .constdata                               0x0002b188   Section        4  ctype_o.o(.constdata)
    table                                    0x0002b188   Data           4  ctype_o.o(.constdata)
    .conststring                             0x0002b18c   Section      162  nrf_ble_gatt.o(.conststring)
    .conststring                             0x0002b230   Section      392  nrf_sdh_ble.o(.conststring)
    .conststring                             0x0002b3b8   Section     1003  nrf_strerror.o(.conststring)
    .conststring                             0x0002b7a4   Section      102  nrf_log_str_formatter.o(.conststring)
    .conststrlit                             0x0002b80c   Section       13  nrf_ble_gatt.o(.conststrlit)
    .conststrlit                             0x0002b81c   Section        8  nrf_sdh.o(.conststrlit)
    .conststrlit                             0x0002b824   Section       12  nrf_sdh_ble.o(.conststrlit)
    .conststrlit                             0x0002b830   Section       12  nrf_sdh_soc.o(.conststrlit)
    .conststrlit                             0x0002b83c   Section        5  nrfx_uart.o(.conststrlit)
    .conststrlit                             0x0002b844   Section        6  nrfx_uarte.o(.conststrlit)
    .conststrlit                             0x0002b84c   Section        4  nrfx_prs.o(.conststrlit)
    .conststrlit                             0x0002b850   Section        7  nrfx_gpiote.o(.conststrlit)
    .conststrlit                             0x0002b858   Section       10  app_timer2.o(.conststrlit)
    .conststrlit                             0x0002b864   Section        9  nrf_sortlist.o(.conststrlit)
    .conststrlit                             0x0002b870   Section        9  nrf_pwr_mgmt.o(.conststrlit)
    .conststrlit                             0x0002b87c   Section       11  app_button.o(.conststrlit)
    .conststrlit                             0x0002b888   Section       17  nrf_log_default_backends.o(.conststrlit)
    .conststrlit                             0x0002b89c   Section        4  nrf_log_frontend.o(.conststrlit)
    log_backends                             0x0002b8c0   Section       16  nrf_log_default_backends.o(log_backends)
    __tagsym$$used                           0x0002b8c0   Number         0  nrf_log_default_backends.o(log_backends)
    uart_log_backend                         0x0002b8c0   Data          16  nrf_log_default_backends.o(log_backends)
    log_const_data                           0x0002b8d0   Section        8  nrf_ble_gatt.o(log_const_data)
    __tagsym$$used                           0x0002b8d0   Number         0  nrf_ble_gatt.o(log_const_data)
    log_const_data                           0x0002b8d8   Section        8  nrf_sdh.o(log_const_data)
    __tagsym$$used                           0x0002b8d8   Number         0  nrf_sdh.o(log_const_data)
    log_const_data                           0x0002b8e0   Section        8  nrf_sdh_ble.o(log_const_data)
    __tagsym$$used                           0x0002b8e0   Number         0  nrf_sdh_ble.o(log_const_data)
    log_const_data                           0x0002b8e8   Section        8  nrf_sdh_soc.o(log_const_data)
    __tagsym$$used                           0x0002b8e8   Number         0  nrf_sdh_soc.o(log_const_data)
    log_const_data                           0x0002b8f0   Section        8  nrfx_uart.o(log_const_data)
    __tagsym$$used                           0x0002b8f0   Number         0  nrfx_uart.o(log_const_data)
    log_const_data                           0x0002b8f8   Section        8  nrfx_uarte.o(log_const_data)
    __tagsym$$used                           0x0002b8f8   Number         0  nrfx_uarte.o(log_const_data)
    log_const_data                           0x0002b900   Section        8  nrfx_prs.o(log_const_data)
    __tagsym$$used                           0x0002b900   Number         0  nrfx_prs.o(log_const_data)
    log_const_data                           0x0002b908   Section        8  nrfx_gpiote.o(log_const_data)
    __tagsym$$used                           0x0002b908   Number         0  nrfx_gpiote.o(log_const_data)
    log_const_data                           0x0002b910   Section        8  app_timer2.o(log_const_data)
    __tagsym$$used                           0x0002b910   Number         0  app_timer2.o(log_const_data)
    log_const_data                           0x0002b918   Section        8  nrf_sortlist.o(log_const_data)
    __tagsym$$used                           0x0002b918   Number         0  nrf_sortlist.o(log_const_data)
    log_const_data                           0x0002b920   Section        8  nrf_pwr_mgmt.o(log_const_data)
    __tagsym$$used                           0x0002b920   Number         0  nrf_pwr_mgmt.o(log_const_data)
    log_const_data                           0x0002b928   Section        8  app_button.o(log_const_data)
    __tagsym$$used                           0x0002b928   Number         0  app_button.o(log_const_data)
    log_const_data                           0x0002b930   Section        8  nrf_log_frontend.o(log_const_data)
    __tagsym$$used                           0x0002b930   Number         0  nrf_log_frontend.o(log_const_data)
    nrf_balloc                               0x0002b938   Section       20  nrf_log_frontend.o(nrf_balloc)
    __tagsym$$used                           0x0002b938   Number         0  nrf_log_frontend.o(nrf_balloc)
    sdh_ble_observers0                       0x0002b94c   Section        8  ble_conn_state.o(sdh_ble_observers0)
    __tagsym$$used                           0x0002b94c   Number         0  ble_conn_state.o(sdh_ble_observers0)
    m_ble_evt_observer                       0x0002b94c   Data           8  ble_conn_state.o(sdh_ble_observers0)
    sdh_ble_observers1                       0x0002b954   Section        8  main.o(sdh_ble_observers1)
    __tagsym$$used                           0x0002b954   Number         0  main.o(sdh_ble_observers1)
    m_gatt_obs                               0x0002b954   Data           8  main.o(sdh_ble_observers1)
    sdh_ble_observers1                       0x0002b95c   Section        8  ble_conn_params.o(sdh_ble_observers1)
    __tagsym$$used                           0x0002b95c   Number         0  ble_conn_params.o(sdh_ble_observers1)
    m_ble_observer                           0x0002b95c   Data           8  ble_conn_params.o(sdh_ble_observers1)
    sdh_ble_observers2                       0x0002b964   Section       16  main.o(sdh_ble_observers2)
    __tagsym$$used                           0x0002b964   Number         0  main.o(sdh_ble_observers2)
    m_lbs_obs                                0x0002b964   Data           8  main.o(sdh_ble_observers2)
    __tagsym$$used                           0x0002b96c   Number         0  main.o(sdh_ble_observers2)
    m_qwr_obs                                0x0002b96c   Data           8  main.o(sdh_ble_observers2)
    sdh_ble_observers3                       0x0002b974   Section        8  main.o(sdh_ble_observers3)
    __tagsym$$used                           0x0002b974   Number         0  main.o(sdh_ble_observers3)
    m_ble_observer                           0x0002b974   Data           8  main.o(sdh_ble_observers3)
    sdh_stack_observers0                     0x0002b97c   Section        8  nrf_sdh_ble.o(sdh_stack_observers0)
    __tagsym$$used                           0x0002b97c   Number         0  nrf_sdh_ble.o(sdh_stack_observers0)
    m_nrf_sdh_ble_evts_poll                  0x0002b97c   Data           8  nrf_sdh_ble.o(sdh_stack_observers0)
    sdh_stack_observers0                     0x0002b984   Section        8  nrf_sdh_soc.o(sdh_stack_observers0)
    __tagsym$$used                           0x0002b984   Number         0  nrf_sdh_soc.o(sdh_stack_observers0)
    m_nrf_sdh_soc_evts_poll                  0x0002b984   Data           8  nrf_sdh_soc.o(sdh_stack_observers0)
    .data                                    0x20002a98   Section       28  main.o(.data)
    m_adv_handle                             0x20002a98   Data           1  main.o(.data)
    m_conn_handle                            0x20002a9a   Data           2  main.o(.data)
    buttons                                  0x20002a9c   Data           8  main.o(.data)
    m_adv_data                               0x20002aa4   Data          16  main.o(.data)
    .data                                    0x20002ab4   Section        8  ble_conn_params.o(.data)
    m_preferred_conn_params                  0x20002ab4   Data           8  ble_conn_params.o(.data)
    .data                                    0x20002abc   Section        3  nrf_sdh.o(.data)
    m_nrf_sdh_enabled                        0x20002abc   Data           1  nrf_sdh.o(.data)
    m_nrf_sdh_suspended                      0x20002abd   Data           1  nrf_sdh.o(.data)
    m_nrf_sdh_continue                       0x20002abe   Data           1  nrf_sdh.o(.data)
    .data                                    0x20002abf   Section        1  nrf_sdh_ble.o(.data)
    m_stack_is_enabled                       0x20002abf   Data           1  nrf_sdh_ble.o(.data)
    .data                                    0x20002ac0   Section       12  nrf_drv_uart.o(.data)
    m_handlers                               0x20002ac4   Data           4  nrf_drv_uart.o(.data)
    m_contexts                               0x20002ac8   Data           4  nrf_drv_uart.o(.data)
    .data                                    0x20002acc   Section        8  nrfx_prs.o(.data)
    m_prs_box_4                              0x20002acc   Data           8  nrfx_prs.o(.data)
    .data                                    0x20002ad8   Section       32  app_timer2.o(.data)
    m_global_active                          0x20002ad8   Data           1  app_timer2.o(.data)
    mp_active_timer                          0x20002adc   Data           4  app_timer2.o(.data)
    m_rtc_inst                               0x20002ae0   Data           8  app_timer2.o(.data)
    m_base_counter                           0x20002ae8   Data           8  app_timer2.o(.data)
    m_stamp64                                0x20002af0   Data           8  app_timer2.o(.data)
    .data                                    0x20002af8   Section        4  app_timer2.o(.data)
    m_app_timer_sortlist_sortlist_cb         0x20002af8   Data           4  app_timer2.o(.data)
    .data                                    0x20002afc   Section       12  drv_rtc.o(.data)
    m_handlers                               0x20002afc   Data           4  drv_rtc.o(.data)
    m_cb                                     0x20002b00   Data           8  drv_rtc.o(.data)
    .data                                    0x20002b08   Section        8  nrf_pwr_mgmt.o(.data)
    m_pwr_mgmt_evt                           0x20002b08   Data           1  nrf_pwr_mgmt.o(.data)
    m_shutdown_started                       0x20002b09   Data           1  nrf_pwr_mgmt.o(.data)
    m_sysoff_mtx                             0x20002b0c   Data           4  nrf_pwr_mgmt.o(.data)
    .data                                    0x20002b10   Section       24  app_button.o(.data)
    m_button_count                           0x20002b10   Data           1  app_button.o(.data)
    mp_buttons                               0x20002b14   Data           4  app_button.o(.data)
    m_detection_delay                        0x20002b18   Data           4  app_button.o(.data)
    m_pin_active                             0x20002b20   Data           8  app_button.o(.data)
    .data                                    0x20002b28   Section       24  nrf_log_backend_uart.o(.data)
    m_xfer_done                              0x20002b28   Data           1  nrf_log_backend_uart.o(.data)
    m_async_mode                             0x20002b29   Data           1  nrf_log_backend_uart.o(.data)
    .data                                    0x20002b40   Section        8  nrf_log_default_backends.o(.data)
    log_backend_cb_uart_log_backend          0x20002b40   Data           8  nrf_log_default_backends.o(.data)
    .data                                    0x20002b48   Section        8  nrf_log_frontend.o(.data)
    log_mempool_nrf_balloc_pool_stack        0x20002b48   Data           8  nrf_log_frontend.o(.data)
    .data                                    0x20002b50   Section        8  nrf_log_frontend.o(.data)
    log_mempool_nrf_balloc_cb                0x20002b50   Data           8  nrf_log_frontend.o(.data)
    .data                                    0x20002b58   Section       64  nrf_log_str_formatter.o(.data)
    m_freq                                   0x20002b58   Data           4  nrf_log_str_formatter.o(.data)
    m_timestamp_div                          0x20002b5c   Data           4  nrf_log_str_formatter.o(.data)
    severity_names                           0x20002b60   Data          20  nrf_log_str_formatter.o(.data)
    m_colors                                 0x20002b74   Data          36  nrf_log_str_formatter.o(.data)
    .data                                    0x20002b98   Section        4  system_nrf52.o(.data)
    __tagsym$$used                           0x20002b98   Number         0  system_nrf52.o(.data)
    .bss                                     0x20002b9c   Section       56  main.o(.bss)
    m_lbs                                    0x20002b9c   Data          24  main.o(.bss)
    m_gatt                                   0x20002bb4   Data          20  main.o(.bss)
    m_qwr                                    0x20002bc8   Data          12  main.o(.bss)
    .bss                                     0x20002bd4   Section       31  main.o(.bss)
    m_enc_advdata                            0x20002bd4   Data          31  main.o(.bss)
    .bss                                     0x20002bf3   Section       31  main.o(.bss)
    m_enc_scan_response_data                 0x20002bf3   Data          31  main.o(.bss)
    .bss                                     0x20002c18   Section       80  ble_conn_params.o(.bss)
    m_timer_data                             0x20002c18   Data          32  ble_conn_params.o(.bss)
    m_conn_params_instances                  0x20002c38   Data          20  ble_conn_params.o(.bss)
    m_conn_params_config                     0x20002c4c   Data          28  ble_conn_params.o(.bss)
    .bss                                     0x20002c68   Section      124  ble_conn_state.o(.bss)
    m_bcs                                    0x20002c68   Data         124  ble_conn_state.o(.bss)
    .bss                                     0x20002ce4   Section       44  nrfx_uart.o(.bss)
    m_cb                                     0x20002ce4   Data          44  nrfx_uart.o(.bss)
    .bss                                     0x20002d10   Section       36  nrfx_uarte.o(.bss)
    m_cb                                     0x20002d10   Data          36  nrfx_uarte.o(.bss)
    .bss                                     0x20002d34   Section       92  nrfx_gpiote.o(.bss)
    m_cb                                     0x20002d34   Data          92  nrfx_gpiote.o(.bss)
    .bss                                     0x20002d90   Section       16  app_timer2.o(.bss)
    m_req_fifo_inst                          0x20002d90   Data          16  app_timer2.o(.bss)
    .bss                                     0x20002da0   Section       88  app_timer2.o(.bss)
    m_req_fifo_data                          0x20002da0   Data          88  app_timer2.o(.bss)
    .bss                                     0x20002df8   Section       12  app_util_platform.o(.bss)
    .bss                                     0x20002e04   Section       12  nrf_pwr_mgmt.o(.bss)
    m_handlers_iter                          0x20002e04   Data          12  nrf_pwr_mgmt.o(.bss)
    .bss                                     0x20002e10   Section       32  app_button.o(.bss)
    m_detection_delay_timer_id_data          0x20002e10   Data          32  app_button.o(.bss)
    .bss                                     0x20002e30   Section       16  app_button.o(.bss)
    m_pin_states                             0x20002e30   Data          16  app_button.o(.bss)
    .bss                                     0x20002e40   Section       64  nrf_log_backend_uart.o(.bss)
    m_string_buff                            0x20002e40   Data          64  nrf_log_backend_uart.o(.bss)
    .bss                                     0x20002e80   Section      192  nrf_log_frontend.o(.bss)
    log_mempool_nrf_balloc_pool_mem          0x20002e80   Data         192  nrf_log_frontend.o(.bss)
    .bss                                     0x20002f40   Section      128  nrf_log_frontend.o(.bss)
    m_log_push_ringbuf_buf                   0x20002f40   Data         128  nrf_log_frontend.o(.bss)
    .bss                                     0x20002fc0   Section       24  nrf_log_frontend.o(.bss)
    m_log_push_ringbuf_cb                    0x20002fc0   Data          24  nrf_log_frontend.o(.bss)
    .bss                                     0x20002fd8   Section     1060  nrf_log_frontend.o(.bss)
    m_log_data                               0x20002fd8   Data        1060  nrf_log_frontend.o(.bss)
    STACK                                    0x20003400   Section     8192  arm_startup_nrf52.o(STACK)

    Global Symbols

    Symbol Name                              Value     Ov Type        Size  Object(Section)

    BuildAttributes$$THM_ISAv4$E$P$D$K$B$S$7EM$VFPi3$EXTD16$VFPS$VFMA$PE$A:L22UL41UL21$X:L11$S22US41US21$IEEE1$IW$USESV6$~STKCKD$USESV7$~SHL$OSPACE$EBA8$MICROLIB$REQ8$EABIv2 0x00000000   Number         0  anon$$obj.o ABSOLUTE
    __ARM_use_no_argv                        0x00000000   Number         0  main.o ABSOLUTE
    __cpp_initialize__aeabi_                  - Undefined Weak Reference
    __cxa_finalize                            - Undefined Weak Reference
    __decompress                              - Undefined Weak Reference
    _clock_init                               - Undefined Weak Reference
    _microlib_exit                            - Undefined Weak Reference
    log_dynamic_data$$Base                    - Undefined Reference
    pwr_mgmt_data0$$Base                      - Undefined Reference
    pwr_mgmt_data0$$Limit                     - Undefined Reference
    pwr_mgmt_data1$$Base                      - Undefined Reference
    pwr_mgmt_data1$$Limit                     - Undefined Reference
    pwr_mgmt_data2$$Base                      - Undefined Reference
    pwr_mgmt_data2$$Limit                     - Undefined Reference
    sdh_req_observers0$$Base                  - Undefined Reference
    sdh_req_observers0$$Limit                 - Undefined Reference
    sdh_req_observers1$$Base                  - Undefined Reference
    sdh_req_observers1$$Limit                 - Undefined Reference
    sdh_soc_observers0$$Base                  - Undefined Reference
    sdh_soc_observers0$$Limit                 - Undefined Reference
    sdh_soc_observers1$$Base                  - Undefined Reference
    sdh_soc_observers1$$Limit                 - Undefined Reference
    sdh_stack_observers1$$Base                - Undefined Reference
    sdh_stack_observers1$$Limit               - Undefined Reference
    sdh_state_observers0$$Base                - Undefined Reference
    sdh_state_observers0$$Limit               - Undefined Reference
    sdh_state_observers1$$Base                - Undefined Reference
    sdh_state_observers1$$Limit               - Undefined Reference
    __Vectors_Size                           0x00000200   Number         0  arm_startup_nrf52.o ABSOLUTE
    __Vectors                                0x00026000   Data           4  arm_startup_nrf52.o(RESET)
    __Vectors_End                            0x00026200   Data           0  arm_startup_nrf52.o(RESET)
    __main                                   0x00026201   Thumb Code     0  entry.o(.ARM.Collect$$$$00000000)
    _main_stk                                0x00026201   Thumb Code     0  entry2.o(.ARM.Collect$$$$00000001)
    _main_scatterload                        0x00026205   Thumb Code     0  entry5.o(.ARM.Collect$$$$00000004)
    __main_after_scatterload                 0x00026209   Thumb Code     0  entry5.o(.ARM.Collect$$$$00000004)
    _main_clock                              0x00026209   Thumb Code     0  entry7b.o(.ARM.Collect$$$$00000008)
    _main_cpp_init                           0x00026209   Thumb Code     0  entry8b.o(.ARM.Collect$$$$0000000A)
    _main_init                               0x00026209   Thumb Code     0  entry9a.o(.ARM.Collect$$$$0000000B)
    __rt_final_cpp                           0x00026211   Thumb Code     0  entry10a.o(.ARM.Collect$$$$0000000D)
    __rt_final_exit                          0x00026211   Thumb Code     0  entry11a.o(.ARM.Collect$$$$0000000F)
    __asm___9_drv_rtc_c_85327d01__nrf_delay_us 0x00026215   Thumb Code   118  drv_rtc.o(.emb_text)
    __asm___12_nrf_atfifo_c_51f461e1__nrf_atfifo_wspace_req 0x0002628d   Thumb Code    56  nrf_atfifo.o(.emb_text)
    __asm___12_nrf_atfifo_c_51f461e1__nrf_atfifo_wspace_close 0x000262c5   Thumb Code    18  nrf_atfifo.o(.emb_text)
    __asm___12_nrf_atfifo_c_51f461e1__nrf_atfifo_rspace_req 0x000262d7   Thumb Code    58  nrf_atfifo.o(.emb_text)
    __asm___12_nrf_atfifo_c_51f461e1__nrf_atfifo_rspace_close 0x00026311   Thumb Code    18  nrf_atfifo.o(.emb_text)
    __asm___12_nrf_atfifo_c_51f461e1__nrf_atfifo_space_clear 0x00026323   Thumb Code    50  nrf_atfifo.o(.emb_text)
    __asm___12_nrf_atomic_c_85ca2469__nrf_atomic_internal_mov 0x00026355   Thumb Code    24  nrf_atomic.o(.emb_text)
    __asm___12_nrf_atomic_c_85ca2469__nrf_atomic_internal_orr 0x0002636d   Thumb Code    26  nrf_atomic.o(.emb_text)
    __asm___12_nrf_atomic_c_85ca2469__nrf_atomic_internal_and 0x00026387   Thumb Code    26  nrf_atomic.o(.emb_text)
    __asm___12_nrf_atomic_c_85ca2469__nrf_atomic_internal_eor 0x000263a1   Thumb Code    26  nrf_atomic.o(.emb_text)
    __asm___12_nrf_atomic_c_85ca2469__nrf_atomic_internal_add 0x000263bb   Thumb Code    26  nrf_atomic.o(.emb_text)
    __asm___12_nrf_atomic_c_85ca2469__nrf_atomic_internal_sub 0x000263d5   Thumb Code    26  nrf_atomic.o(.emb_text)
    __asm___12_nrf_atomic_c_85ca2469__nrf_atomic_internal_cmp_exch 0x000263ef   Thumb Code    42  nrf_atomic.o(.emb_text)
    __asm___12_nrf_atomic_c_85ca2469__nrf_atomic_internal_sub_hs 0x00026419   Thumb Code    30  nrf_atomic.o(.emb_text)
    Reset_Handler                            0x00026439   Thumb Code     8  arm_startup_nrf52.o(.text)
    NMI_Handler                              0x00026441   Thumb Code     2  arm_startup_nrf52.o(.text)
    HardFault_Handler                        0x00026443   Thumb Code     2  arm_startup_nrf52.o(.text)
    MemoryManagement_Handler                 0x00026445   Thumb Code     2  arm_startup_nrf52.o(.text)
    BusFault_Handler                         0x00026447   Thumb Code     2  arm_startup_nrf52.o(.text)
    UsageFault_Handler                       0x00026449   Thumb Code     2  arm_startup_nrf52.o(.text)
    SVC_Handler                              0x0002644b   Thumb Code     2  arm_startup_nrf52.o(.text)
    DebugMon_Handler                         0x0002644d   Thumb Code     2  arm_startup_nrf52.o(.text)
    PendSV_Handler                           0x0002644f   Thumb Code     2  arm_startup_nrf52.o(.text)
    SysTick_Handler                          0x00026451   Thumb Code     2  arm_startup_nrf52.o(.text)
    CCM_AAR_IRQHandler                       0x00026453   Thumb Code     0  arm_startup_nrf52.o(.text)
    COMP_LPCOMP_IRQHandler                   0x00026453   Thumb Code     0  arm_startup_nrf52.o(.text)
    ECB_IRQHandler                           0x00026453   Thumb Code     0  arm_startup_nrf52.o(.text)
    FPU_IRQHandler                           0x00026453   Thumb Code     0  arm_startup_nrf52.o(.text)
    I2S_IRQHandler                           0x00026453   Thumb Code     0  arm_startup_nrf52.o(.text)
    MWU_IRQHandler                           0x00026453   Thumb Code     0  arm_startup_nrf52.o(.text)
    NFCT_IRQHandler                          0x00026453   Thumb Code     0  arm_startup_nrf52.o(.text)
    PDM_IRQHandler                           0x00026453   Thumb Code     0  arm_startup_nrf52.o(.text)
    POWER_CLOCK_IRQHandler                   0x00026453   Thumb Code     0  arm_startup_nrf52.o(.text)
    PWM0_IRQHandler                          0x00026453   Thumb Code     0  arm_startup_nrf52.o(.text)
    PWM1_IRQHandler                          0x00026453   Thumb Code     0  arm_startup_nrf52.o(.text)
    PWM2_IRQHandler                          0x00026453   Thumb Code     0  arm_startup_nrf52.o(.text)
    QDEC_IRQHandler                          0x00026453   Thumb Code     0  arm_startup_nrf52.o(.text)
    RADIO_IRQHandler                         0x00026453   Thumb Code     0  arm_startup_nrf52.o(.text)
    RNG_IRQHandler                           0x00026453   Thumb Code     0  arm_startup_nrf52.o(.text)
    RTC0_IRQHandler                          0x00026453   Thumb Code     0  arm_startup_nrf52.o(.text)
    RTC2_IRQHandler                          0x00026453   Thumb Code     0  arm_startup_nrf52.o(.text)
    SAADC_IRQHandler                         0x00026453   Thumb Code     0  arm_startup_nrf52.o(.text)
    SPIM0_SPIS0_TWIM0_TWIS0_SPI0_TWI0_IRQHandler 0x00026453   Thumb Code     0  arm_startup_nrf52.o(.text)
    SPIM1_SPIS1_TWIM1_TWIS1_SPI1_TWI1_IRQHandler 0x00026453   Thumb Code     0  arm_startup_nrf52.o(.text)
    SPIM2_SPIS2_SPI2_IRQHandler              0x00026453   Thumb Code     0  arm_startup_nrf52.o(.text)
    SWI0_EGU0_IRQHandler                     0x00026453   Thumb Code     0  arm_startup_nrf52.o(.text)
    SWI1_EGU1_IRQHandler                     0x00026453   Thumb Code     0  arm_startup_nrf52.o(.text)
    SWI3_EGU3_IRQHandler                     0x00026453   Thumb Code     0  arm_startup_nrf52.o(.text)
    SWI4_EGU4_IRQHandler                     0x00026453   Thumb Code     0  arm_startup_nrf52.o(.text)
    SWI5_EGU5_IRQHandler                     0x00026453   Thumb Code     0  arm_startup_nrf52.o(.text)
    TEMP_IRQHandler                          0x00026453   Thumb Code     0  arm_startup_nrf52.o(.text)
    TIMER0_IRQHandler                        0x00026453   Thumb Code     0  arm_startup_nrf52.o(.text)
    TIMER1_IRQHandler                        0x00026453   Thumb Code     0  arm_startup_nrf52.o(.text)
    TIMER2_IRQHandler                        0x00026453   Thumb Code     0  arm_startup_nrf52.o(.text)
    TIMER3_IRQHandler                        0x00026453   Thumb Code     0  arm_startup_nrf52.o(.text)
    TIMER4_IRQHandler                        0x00026453   Thumb Code     0  arm_startup_nrf52.o(.text)
    WDT_IRQHandler                           0x00026453   Thumb Code     0  arm_startup_nrf52.o(.text)
    __aeabi_llsl                             0x0002645d   Thumb Code    30  llshl.o(.text)
    _ll_shift_l                              0x0002645d   Thumb Code     0  llshl.o(.text)
    __rt_ctype_table                         0x0002647d   Thumb Code     4  ctype_o.o(.text)
    __aeabi_memcpy                           0x00026485   Thumb Code    36  memcpya.o(.text)
    __aeabi_memcpy4                          0x00026485   Thumb Code     0  memcpya.o(.text)
    __aeabi_memcpy8                          0x00026485   Thumb Code     0  memcpya.o(.text)
    __aeabi_memset                           0x000264a9   Thumb Code    14  memseta.o(.text)
    __aeabi_memset4                          0x000264a9   Thumb Code     0  memseta.o(.text)
    __aeabi_memset8                          0x000264a9   Thumb Code     0  memseta.o(.text)
    __aeabi_memclr                           0x000264b7   Thumb Code     4  memseta.o(.text)
    __aeabi_memclr4                          0x000264b7   Thumb Code     0  memseta.o(.text)
    __aeabi_memclr8                          0x000264b7   Thumb Code     0  memseta.o(.text)
    _memset$wrapper                          0x000264bb   Thumb Code    18  memseta.o(.text)
    strlen                                   0x000264cd   Thumb Code    14  strlen.o(.text)
    __scatterload                            0x000264dd   Thumb Code    28  init.o(.text)
    __scatterload_rt2                        0x000264dd   Thumb Code     0  init.o(.text)
    GPIOTE_IRQHandler                        0x00026501   Thumb Code   346  nrfx_gpiote.o(i.GPIOTE_IRQHandler)
    RTC1_IRQHandler                          0x00026665   Thumb Code    12  drv_rtc.o(i.RTC1_IRQHandler)
    SWI2_EGU2_IRQHandler                     0x00026675   Thumb Code     4  nrf_sdh.o(i.SWI2_EGU2_IRQHandler)
    SystemInit                               0x00026679   Thumb Code   740  system_nrf52.o(i.SystemInit)
    UARTE0_UART0_IRQHandler                  0x000269a5   Thumb Code     6  nrfx_prs.o(i.UARTE0_UART0_IRQHandler)
    __scatterload_copy                       0x000269b1   Thumb Code    14  handlers.o(i.__scatterload_copy)
    __scatterload_null                       0x000269bf   Thumb Code     2  handlers.o(i.__scatterload_null)
    __scatterload_zeroinit                   0x000269c1   Thumb Code    14  handlers.o(i.__scatterload_zeroinit)
    app_button_disable                       0x00026ab9   Thumb Code    64  app_button.o(i.app_button_disable)
    app_button_enable                        0x00026b01   Thumb Code    32  app_button.o(i.app_button_enable)
    app_button_init                          0x00026b25   Thumb Code   106  app_button.o(i.app_button_init)
    app_error_fault_handler                  0x00026ba5   Thumb Code    86  app_error_weak.o(i.app_error_fault_handler)
    app_error_handler_bare                   0x00026c29   Thumb Code    22  app_error.o(i.app_error_handler_bare)
    app_timer_cnt_get                        0x00026c41   Thumb Code     6  app_timer2.o(i.app_timer_cnt_get)
    app_timer_create                         0x00026c4d   Thumb Code    22  app_timer2.o(i.app_timer_create)
    app_timer_init                           0x00026c65   Thumb Code    70  app_timer2.o(i.app_timer_init)
    app_timer_start                          0x00026cc1   Thumb Code    48  app_timer2.o(i.app_timer_start)
    app_timer_stop                           0x00026cf1   Thumb Code    12  app_timer2.o(i.app_timer_stop)
    app_util_critical_region_enter           0x00026cfd   Thumb Code    64  app_util_platform.o(i.app_util_critical_region_enter)
    app_util_critical_region_exit            0x00026d45   Thumb Code    46  app_util_platform.o(i.app_util_critical_region_exit)
    ble_advdata_encode                       0x00026e89   Thumb Code   386  ble_advdata.o(i.ble_advdata_encode)
    ble_conn_params_init                     0x0002700d   Thumb Code    90  ble_conn_params.o(i.ble_conn_params_init)
    ble_lbs_init                             0x000273e5   Thumb Code   190  ble_lbs.o(i.ble_lbs_init)
    ble_lbs_on_ble_evt                       0x000274a9   Thumb Code    46  ble_lbs.o(i.ble_lbs_on_ble_evt)
    ble_lbs_on_button_change                 0x000274d7   Thumb Code    46  ble_lbs.o(i.ble_lbs_on_button_change)
    ble_srv_is_notification_enabled          0x00027505   Thumb Code     8  ble_srv_common.o(i.ble_srv_is_notification_enabled)
    bsp_board_init                           0x0002750d   Thumb Code    80  boards.o(i.bsp_board_init)
    bsp_board_led_off                        0x00027561   Thumb Code    10  boards.o(i.bsp_board_led_off)
    bsp_board_led_on                         0x00027571   Thumb Code    10  boards.o(i.bsp_board_led_on)
    bsp_board_leds_off                       0x00027581   Thumb Code    18  boards.o(i.bsp_board_leds_off)
    buffer_is_empty                          0x00027655   Thumb Code    16  nrf_log_frontend.o(i.buffer_is_empty)
    characteristic_add                       0x0002777d   Thumb Code   400  ble_srv_common.o(i.characteristic_add)
    conn_handle_list_get                     0x00027925   Thumb Code    62  ble_conn_state.o(i.conn_handle_list_get)
    drv_rtc_compare_disable                  0x00027b55   Thumb Code    20  drv_rtc.o(i.drv_rtc_compare_disable)
    drv_rtc_compare_pending                  0x00027b69   Thumb Code    14  drv_rtc.o(i.drv_rtc_compare_pending)
    drv_rtc_compare_set                      0x00027b77   Thumb Code    80  drv_rtc.o(i.drv_rtc_compare_set)
    drv_rtc_counter_get                      0x00027bc7   Thumb Code     8  drv_rtc.o(i.drv_rtc_counter_get)
    drv_rtc_init                             0x00027bd1   Thumb Code   148  drv_rtc.o(i.drv_rtc_init)
    drv_rtc_irq_trigger                      0x00027ca9   Thumb Code    30  drv_rtc.o(i.drv_rtc_irq_trigger)
    drv_rtc_overflow_enable                  0x00027cc7   Thumb Code     8  drv_rtc.o(i.drv_rtc_overflow_enable)
    drv_rtc_overflow_pending                 0x00027ccf   Thumb Code     8  drv_rtc.o(i.drv_rtc_overflow_pending)
    drv_rtc_start                            0x00027cd7   Thumb Code     8  drv_rtc.o(i.drv_rtc_start)
    drv_rtc_stop                             0x00027cdf   Thumb Code     8  drv_rtc.o(i.drv_rtc_stop)
    drv_rtc_windowed_compare_set             0x00027ce7   Thumb Code   222  drv_rtc.o(i.drv_rtc_windowed_compare_set)
    evt_handle                               0x00027dd9   Thumb Code   216  app_button.o(i.evt_handle)
    main                                     0x00028215   Thumb Code   330  main.o(i.main)
    nrf_atfifo_init                          0x00028563   Thumb Code    38  nrf_atfifo.o(i.nrf_atfifo_init)
    nrf_atfifo_item_alloc                    0x00028589   Thumb Code    22  nrf_atfifo.o(i.nrf_atfifo_item_alloc)
    nrf_atfifo_item_free                     0x0002859f   Thumb Code    22  nrf_atfifo.o(i.nrf_atfifo_item_free)
    nrf_atfifo_item_get                      0x000285b5   Thumb Code    22  nrf_atfifo.o(i.nrf_atfifo_item_get)
    nrf_atfifo_item_put                      0x000285cb   Thumb Code    22  nrf_atfifo.o(i.nrf_atfifo_item_put)
    nrf_atflags_clear                        0x000285e1   Thumb Code    22  nrf_atflags.o(i.nrf_atflags_clear)
    nrf_atflags_get                          0x000285f7   Thumb Code    22  nrf_atflags.o(i.nrf_atflags_get)
    nrf_atflags_set                          0x0002860d   Thumb Code    20  nrf_atflags.o(i.nrf_atflags_set)
    nrf_atomic_flag_clear_fetch              0x00028621   Thumb Code     6  nrf_atomic.o(i.nrf_atomic_flag_clear_fetch)
    nrf_atomic_flag_set                      0x00028627   Thumb Code     6  nrf_atomic.o(i.nrf_atomic_flag_set)
    nrf_atomic_u32_add                       0x0002862d   Thumb Code    12  nrf_atomic.o(i.nrf_atomic_u32_add)
    nrf_atomic_u32_and                       0x00028639   Thumb Code    12  nrf_atomic.o(i.nrf_atomic_u32_and)
    nrf_atomic_u32_fetch_and                 0x00028645   Thumb Code    10  nrf_atomic.o(i.nrf_atomic_u32_fetch_and)
    nrf_atomic_u32_fetch_store               0x0002864f   Thumb Code    10  nrf_atomic.o(i.nrf_atomic_u32_fetch_store)
    nrf_atomic_u32_or                        0x00028659   Thumb Code    12  nrf_atomic.o(i.nrf_atomic_u32_or)
    nrf_atomic_u32_sub                       0x00028665   Thumb Code    12  nrf_atomic.o(i.nrf_atomic_u32_sub)
    nrf_balloc_alloc                         0x00028671   Thumb Code    68  nrf_balloc.o(i.nrf_balloc_alloc)
    nrf_balloc_free                          0x000286b5   Thumb Code    48  nrf_balloc.o(i.nrf_balloc_free)
    nrf_balloc_init                          0x000286e5   Thumb Code    48  nrf_balloc.o(i.nrf_balloc_init)
    nrf_ble_gatt_init                        0x00028739   Thumb Code    34  nrf_ble_gatt.o(i.nrf_ble_gatt_init)
    nrf_ble_gatt_on_ble_evt                  0x0002875d   Thumb Code   270  nrf_ble_gatt.o(i.nrf_ble_gatt_on_ble_evt)
    nrf_ble_qwr_conn_handle_assign           0x000288ad   Thumb Code    22  nrf_ble_qwr.o(i.nrf_ble_qwr_conn_handle_assign)
    nrf_ble_qwr_init                         0x000288c3   Thumb Code    36  nrf_ble_qwr.o(i.nrf_ble_qwr_init)
    nrf_ble_qwr_on_ble_evt                   0x000288e7   Thumb Code   182  nrf_ble_qwr.o(i.nrf_ble_qwr_on_ble_evt)
    nrf_drv_uart_init                        0x0002899d   Thumb Code    90  nrf_drv_uart.o(i.nrf_drv_uart_init)
    nrf_fprintf                              0x00028a05   Thumb Code    26  nrf_fprintf.o(i.nrf_fprintf)
    nrf_fprintf_buffer_flush                 0x00028a1f   Thumb Code    24  nrf_fprintf.o(i.nrf_fprintf_buffer_flush)
    nrf_fprintf_fmt                          0x00028a37   Thumb Code   474  nrf_fprintf_format.o(i.nrf_fprintf_fmt)
    nrf_log_backend_add                      0x00028d95   Thumb Code    86  nrf_log_frontend.o(i.nrf_log_backend_add)
    nrf_log_backend_serial_put               0x00028df1   Thumb Code   200  nrf_log_backend_serial.o(i.nrf_log_backend_serial_put)
    nrf_log_backend_uart_init                0x00028ebb   Thumb Code     6  nrf_log_backend_uart.o(i.nrf_log_backend_uart_init)
    nrf_log_color_id_get                     0x00028f05   Thumb Code    42  nrf_log_frontend.o(i.nrf_log_color_id_get)
    nrf_log_default_backends_init            0x00028f35   Thumb Code    24  nrf_log_default_backends.o(i.nrf_log_default_backends_init)
    nrf_log_frontend_dequeue                 0x00028f51   Thumb Code   528  nrf_log_frontend.o(i.nrf_log_frontend_dequeue)
    nrf_log_frontend_std_0                   0x00029185   Thumb Code     8  nrf_log_frontend.o(i.nrf_log_frontend_std_0)
    nrf_log_frontend_std_1                   0x0002918d   Thumb Code    14  nrf_log_frontend.o(i.nrf_log_frontend_std_1)
    nrf_log_frontend_std_2                   0x0002919b   Thumb Code    16  nrf_log_frontend.o(i.nrf_log_frontend_std_2)
    nrf_log_hexdump_entry_process            0x000291ad   Thumb Code   150  nrf_log_str_formatter.o(i.nrf_log_hexdump_entry_process)
    nrf_log_init                             0x0002925d   Thumb Code    46  nrf_log_frontend.o(i.nrf_log_init)
    nrf_log_module_cnt_get                   0x00029299   Thumb Code    10  nrf_log_frontend.o(i.nrf_log_module_cnt_get)
    nrf_log_module_name_get                  0x000292ad   Thumb Code    24  nrf_log_frontend.o(i.nrf_log_module_name_get)
    nrf_log_panic                            0x000292c9   Thumb Code    38  nrf_log_frontend.o(i.nrf_log_panic)
    nrf_log_std_entry_process                0x000292f5   Thumb Code   182  nrf_log_str_formatter.o(i.nrf_log_std_entry_process)
    nrf_memobj_alloc                         0x000293ab   Thumb Code    96  nrf_memobj.o(i.nrf_memobj_alloc)
    nrf_memobj_free                          0x0002940b   Thumb Code    50  nrf_memobj.o(i.nrf_memobj_free)
    nrf_memobj_get                           0x0002943d   Thumb Code     8  nrf_memobj.o(i.nrf_memobj_get)
    nrf_memobj_pool_init                     0x00029445   Thumb Code     4  nrf_memobj.o(i.nrf_memobj_pool_init)
    nrf_memobj_put                           0x00029449   Thumb Code    30  nrf_memobj.o(i.nrf_memobj_put)
    nrf_memobj_read                          0x00029467   Thumb Code    16  nrf_memobj.o(i.nrf_memobj_read)
    nrf_memobj_write                         0x00029477   Thumb Code    16  nrf_memobj.o(i.nrf_memobj_write)
    nrf_pwr_mgmt_init                        0x00029489   Thumb Code    28  nrf_pwr_mgmt.o(i.nrf_pwr_mgmt_init)
    nrf_pwr_mgmt_run                         0x000294b1   Thumb Code    64  nrf_pwr_mgmt.o(i.nrf_pwr_mgmt_run)
    nrf_ringbuf_init                         0x000294f9   Thumb Code    28  nrf_ringbuf.o(i.nrf_ringbuf_init)
    nrf_sdh_ble_app_ram_start_get            0x00029521   Thumb Code    16  nrf_sdh_ble.o(i.nrf_sdh_ble_app_ram_start_get)
    nrf_sdh_ble_default_cfg_set              0x00029535   Thumb Code   228  nrf_sdh_ble.o(i.nrf_sdh_ble_default_cfg_set)
    nrf_sdh_ble_enable                       0x00029635   Thumb Code   116  nrf_sdh_ble.o(i.nrf_sdh_ble_enable)
    nrf_sdh_enable_request                   0x000297c1   Thumb Code   102  nrf_sdh.o(i.nrf_sdh_enable_request)
    nrf_sdh_evts_poll                        0x00029835   Thumb Code    32  nrf_sdh.o(i.nrf_sdh_evts_poll)
    nrf_sdh_is_enabled                       0x00029859   Thumb Code     6  nrf_sdh.o(i.nrf_sdh_is_enabled)
    nrf_section_iter_init                    0x000298a1   Thumb Code    10  nrf_section_iter.o(i.nrf_section_iter_init)
    nrf_section_iter_next                    0x000298cf   Thumb Code    32  nrf_section_iter.o(i.nrf_section_iter_next)
    nrf_sortlist_add                         0x000298ef   Thumb Code    34  nrf_sortlist.o(i.nrf_sortlist_add)
    nrf_sortlist_peek                        0x00029911   Thumb Code     6  nrf_sortlist.o(i.nrf_sortlist_peek)
    nrf_sortlist_pop                         0x00029917   Thumb Code    14  nrf_sortlist.o(i.nrf_sortlist_pop)
    nrf_sortlist_remove                      0x00029925   Thumb Code    30  nrf_sortlist.o(i.nrf_sortlist_remove)
    nrf_strerror_find                        0x00029945   Thumb Code    52  nrf_strerror.o(i.nrf_strerror_find)
    nrf_strerror_get                         0x0002997d   Thumb Code    14  nrf_strerror.o(i.nrf_strerror_get)
    nrfx_gpiote_in_event_disable             0x000299c9   Thumb Code    66  nrfx_gpiote.o(i.nrfx_gpiote_in_event_disable)
    nrfx_gpiote_in_event_enable              0x00029a11   Thumb Code   156  nrfx_gpiote.o(i.nrfx_gpiote_in_event_enable)
    nrfx_gpiote_in_init                      0x00029ab5   Thumb Code   194  nrfx_gpiote.o(i.nrfx_gpiote_in_init)
    nrfx_gpiote_in_is_set                    0x00029b85   Thumb Code    20  nrfx_gpiote.o(i.nrfx_gpiote_in_is_set)
    nrfx_gpiote_init                         0x00029b99   Thumb Code    94  nrfx_gpiote.o(i.nrfx_gpiote_init)
    nrfx_gpiote_is_init                      0x00029c05   Thumb Code    14  nrfx_gpiote.o(i.nrfx_gpiote_is_init)
    nrfx_prs_acquire                         0x00029c29   Thumb Code    58  nrfx_prs.o(i.nrfx_prs_acquire)
    nrfx_prs_release                         0x00029c63   Thumb Code    18  nrfx_prs.o(i.nrfx_prs_release)
    nrfx_uart_0_irq_handler                  0x00029c75   Thumb Code     8  nrfx_uart.o(i.nrfx_uart_0_irq_handler)
    nrfx_uart_init                           0x00029c85   Thumb Code   200  nrfx_uart.o(i.nrfx_uart_init)
    nrfx_uart_tx                             0x00029d59   Thumb Code   162  nrfx_uart.o(i.nrfx_uart_tx)
    nrfx_uart_tx_in_progress                 0x00029e01   Thumb Code    26  nrfx_uart.o(i.nrfx_uart_tx_in_progress)
    nrfx_uart_uninit                         0x00029e21   Thumb Code   182  nrfx_uart.o(i.nrfx_uart_uninit)
    nrfx_uarte_0_irq_handler                 0x00029ee1   Thumb Code     8  nrfx_uarte.o(i.nrfx_uarte_0_irq_handler)
    nrfx_uarte_init                          0x00029ef1   Thumb Code   100  nrfx_uarte.o(i.nrfx_uarte_init)
    nrfx_uarte_tx                            0x00029f5d   Thumb Code   166  nrfx_uarte.o(i.nrfx_uarte_tx)
    nrfx_uarte_tx_in_progress                0x0002a009   Thumb Code    22  nrfx_uarte.o(i.nrfx_uarte_tx_in_progress)
    nrfx_uarte_uninit                        0x0002a025   Thumb Code   226  nrfx_uarte.o(i.nrfx_uarte_uninit)
    m_ram_start                              0x0002af08   Data           4  nrf_sdh_ble.o(.constdata)
    nrf_log_backend_uart_api                 0x0002b0cc   Data          12  nrf_log_backend_uart.o(.constdata)
    __ctype_table                            0x0002b104   Data         129  ctype_o.o(.constdata)
    Region$$Table$$Base                      0x0002b8a0   Number         0  anon$$obj.o(Region$$Table)
    Region$$Table$$Limit                     0x0002b8c0   Number         0  anon$$obj.o(Region$$Table)
    log_const_data$$Base                     0x0002b8d0   Number         0  nrf_ble_gatt.o(log_const_data)
    m_nrf_log_nrf_ble_gatt_logs_data_const   0x0002b8d0   Data           8  nrf_ble_gatt.o(log_const_data)
    m_nrf_log_nrf_sdh_logs_data_const        0x0002b8d8   Data           8  nrf_sdh.o(log_const_data)
    m_nrf_log_nrf_sdh_ble_logs_data_const    0x0002b8e0   Data           8  nrf_sdh_ble.o(log_const_data)
    m_nrf_log_nrf_sdh_soc_logs_data_const    0x0002b8e8   Data           8  nrf_sdh_soc.o(log_const_data)
    m_nrf_log_UART_logs_data_const           0x0002b8f0   Data           8  nrfx_uart.o(log_const_data)
    m_nrf_log_UARTE_logs_data_const          0x0002b8f8   Data           8  nrfx_uarte.o(log_const_data)
    m_nrf_log_PRS_logs_data_const            0x0002b900   Data           8  nrfx_prs.o(log_const_data)
    m_nrf_log_GPIOTE_logs_data_const         0x0002b908   Data           8  nrfx_gpiote.o(log_const_data)
    m_nrf_log_app_timer_logs_data_const      0x0002b910   Data           8  app_timer2.o(log_const_data)
    m_nrf_log_sortlist_logs_data_const       0x0002b918   Data           8  nrf_sortlist.o(log_const_data)
    m_nrf_log_pwr_mgmt_logs_data_const       0x0002b920   Data           8  nrf_pwr_mgmt.o(log_const_data)
    m_nrf_log_app_button_logs_data_const     0x0002b928   Data           8  app_button.o(log_const_data)
    m_nrf_log_app_logs_data_const            0x0002b930   Data           8  nrf_log_frontend.o(log_const_data)
    log_const_data$$Limit                    0x0002b938   Number         0  nrf_log_frontend.o(log_const_data)
    log_mempool                              0x0002b938   Data          20  nrf_log_frontend.o(nrf_balloc)
    sdh_ble_observers0$$Base                 0x0002b94c   Number         0  ble_conn_state.o(sdh_ble_observers0)
    sdh_ble_observers0$$Limit                0x0002b954   Number         0  ble_conn_state.o(sdh_ble_observers0)
    sdh_ble_observers1$$Base                 0x0002b954   Number         0  main.o(sdh_ble_observers1)
    sdh_ble_observers1$$Limit                0x0002b964   Number         0  ble_conn_params.o(sdh_ble_observers1)
    sdh_ble_observers2$$Base                 0x0002b964   Number         0  main.o(sdh_ble_observers2)
    sdh_ble_observers2$$Limit                0x0002b974   Number         0  main.o(sdh_ble_observers2)
    sdh_ble_observers3$$Base                 0x0002b974   Number         0  main.o(sdh_ble_observers3)
    sdh_ble_observers3$$Limit                0x0002b97c   Number         0  main.o(sdh_ble_observers3)
    sdh_stack_observers0$$Base               0x0002b97c   Number         0  nrf_sdh_ble.o(sdh_stack_observers0)
    sdh_stack_observers0$$Limit              0x0002b98c   Number         0  nrf_sdh_soc.o(sdh_stack_observers0)
    Image$$RW_IRAM1$$Base                    0x20002a98   Number         0  anon$$obj.o ABSOLUTE
    nrf_drv_uart_use_easy_dma                0x20002ac0   Data           1  nrf_drv_uart.o(.data)
    m_uart                                   0x20002b2c   Data          20  nrf_log_backend_uart.o(.data)
    SystemCoreClock                          0x20002b98   Data           4  system_nrf52.o(.data)
    nrf_nvic_state                           0x20002df8   Data          12  app_util_platform.o(.bss)
    __initial_sp                             0x20005400   Data           0  arm_startup_nrf52.o(STACK)



==============================================================================

Memory Map of the image

  Image Entry point : 0x00026201

  Load Region LR_IROM1 (Base: 0x00026000, Size: 0x00005a90, Max: 0x000da000, ABSOLUTE)

    Execution Region ER_IROM1 (Exec base: 0x00026000, Load base: 0x00026000, Size: 0x0000598c, Max: 0x000da000, ABSOLUTE)

    Exec Addr    Load Addr    Size         Type   Attr      Idx    E Section Name        Object

    0x00026000   0x00026000   0x00000200   Data   RO         3852    RESET               arm_startup_nrf52.o
    0x00026200   0x00026200   0x00000000   Code   RO         3927  * .ARM.Collect$$$$00000000  mc_w.l(entry.o)
    0x00026200   0x00026200   0x00000004   Code   RO         3970    .ARM.Collect$$$$00000001  mc_w.l(entry2.o)
    0x00026204   0x00026204   0x00000004   Code   RO         3973    .ARM.Collect$$$$00000004  mc_w.l(entry5.o)
    0x00026208   0x00026208   0x00000000   Code   RO         3975    .ARM.Collect$$$$00000008  mc_w.l(entry7b.o)
    0x00026208   0x00026208   0x00000000   Code   RO         3977    .ARM.Collect$$$$0000000A  mc_w.l(entry8b.o)
    0x00026208   0x00026208   0x00000008   Code   RO         3978    .ARM.Collect$$$$0000000B  mc_w.l(entry9a.o)
    0x00026210   0x00026210   0x00000000   Code   RO         3980    .ARM.Collect$$$$0000000D  mc_w.l(entry10a.o)
    0x00026210   0x00026210   0x00000000   Code   RO         3982    .ARM.Collect$$$$0000000F  mc_w.l(entry11a.o)
    0x00026210   0x00026210   0x00000004   Code   RO         3971    .ARM.Collect$$$$00002712  mc_w.l(entry2.o)
    0x00026214   0x00026214   0x00000076   Code   RO         2238    .emb_text           drv_rtc.o
    0x0002628a   0x0002628a   0x00000002   PAD
    0x0002628c   0x0002628c   0x000000c8   Code   RO         2511    .emb_text           nrf_atfifo.o
    0x00026354   0x00026354   0x000000e2   Code   RO         2584    .emb_text           nrf_atomic.o
    0x00026436   0x00026436   0x00000002   PAD
    0x00026438   0x00026438   0x00000024   Code   RO         3853    .text               arm_startup_nrf52.o
    0x0002645c   0x0002645c   0x0000001e   Code   RO         3930    .text               mc_w.l(llshl.o)
    0x0002647a   0x0002647a   0x00000002   PAD
    0x0002647c   0x0002647c   0x00000008   Code   RO         3932    .text               mc_w.l(ctype_o.o)
    0x00026484   0x00026484   0x00000024   Code   RO         3960    .text               mc_w.l(memcpya.o)
    0x000264a8   0x000264a8   0x00000024   Code   RO         3962    .text               mc_w.l(memseta.o)
    0x000264cc   0x000264cc   0x0000000e   Code   RO         3964    .text               mc_w.l(strlen.o)
    0x000264da   0x000264da   0x00000002   PAD
    0x000264dc   0x000264dc   0x00000024   Code   RO         3984    .text               mc_w.l(init.o)
    0x00026500   0x00026500   0x00000164   Code   RO         1810    i.GPIOTE_IRQHandler  nrfx_gpiote.o
    0x00026664   0x00026664   0x00000010   Code   RO         2239    i.RTC1_IRQHandler   drv_rtc.o
    0x00026674   0x00026674   0x00000004   Code   RO         1118    i.SWI2_EGU2_IRQHandler  nrf_sdh.o
    0x00026678   0x00026678   0x0000032c   Code   RO         3861    i.SystemInit        system_nrf52.o
    0x000269a4   0x000269a4   0x0000000c   Code   RO         1756    i.UARTE0_UART0_IRQHandler  nrfx_prs.o
    0x000269b0   0x000269b0   0x0000000e   Code   RO         3988    i.__scatterload_copy  mc_w.l(handlers.o)
    0x000269be   0x000269be   0x00000002   Code   RO         3989    i.__scatterload_null  mc_w.l(handlers.o)
    0x000269c0   0x000269c0   0x0000000e   Code   RO         3990    i.__scatterload_zeroinit  mc_w.l(handlers.o)
    0x000269ce   0x000269ce   0x00000002   PAD
    0x000269d0   0x000269d0   0x00000024   Code   RO         1119    i.__sd_nvic_app_accessible_irq  nrf_sdh.o
    0x000269f4   0x000269f4   0x000000a4   Code   RO            4    i.advertising_init  main.o
    0x00026a98   0x00026a98   0x00000020   Code   RO            5    i.advertising_start  main.o
    0x00026ab8   0x00026ab8   0x00000048   Code   RO         3343    i.app_button_disable  app_button.o
    0x00026b00   0x00026b00   0x00000024   Code   RO         3344    i.app_button_enable  app_button.o
    0x00026b24   0x00026b24   0x00000080   Code   RO         3345    i.app_button_init   app_button.o
    0x00026ba4   0x00026ba4   0x00000084   Code   RO         3199    i.app_error_fault_handler  app_error_weak.o
    0x00026c28   0x00026c28   0x00000016   Code   RO         2399    i.app_error_handler_bare  app_error.o
    0x00026c3e   0x00026c3e   0x00000002   PAD
    0x00026c40   0x00026c40   0x0000000c   Code   RO         2081    i.app_timer_cnt_get  app_timer2.o
    0x00026c4c   0x00026c4c   0x00000016   Code   RO         2082    i.app_timer_create  app_timer2.o
    0x00026c62   0x00026c62   0x00000002   PAD
    0x00026c64   0x00026c64   0x0000005c   Code   RO         2083    i.app_timer_init    app_timer2.o
    0x00026cc0   0x00026cc0   0x00000030   Code   RO         2086    i.app_timer_start   app_timer2.o
    0x00026cf0   0x00026cf0   0x0000000c   Code   RO         2087    i.app_timer_stop    app_timer2.o
    0x00026cfc   0x00026cfc   0x00000048   Code   RO         3122    i.app_util_critical_region_enter  app_util_platform.o
    0x00026d44   0x00026d44   0x00000034   Code   RO         3123    i.app_util_critical_region_exit  app_util_platform.o
    0x00026d78   0x00026d78   0x00000088   Code   RO         1346    i.apply_config      nrfx_uart.o
    0x00026e00   0x00026e00   0x00000088   Code   RO         1544    i.apply_config      nrfx_uarte.o
    0x00026e88   0x00026e88   0x00000182   Code   RO          478    i.ble_advdata_encode  ble_advdata.o
    0x0002700a   0x0002700a   0x00000002   PAD
    0x0002700c   0x0002700c   0x00000068   Code   RO          606    i.ble_conn_params_init  ble_conn_params.o
    0x00027074   0x00027074   0x00000060   Code   RO          484    i.ble_device_addr_encode  ble_advdata.o
    0x000270d4   0x000270d4   0x000000fc   Code   RO            7    i.ble_evt_handler   main.o
    0x000271d0   0x000271d0   0x000000fc   Code   RO          608    i.ble_evt_handler   ble_conn_params.o
    0x000272cc   0x000272cc   0x00000118   Code   RO          714    i.ble_evt_handler   ble_conn_state.o
    0x000273e4   0x000273e4   0x000000c4   Code   RO         1078    i.ble_lbs_init      ble_lbs.o
    0x000274a8   0x000274a8   0x0000002e   Code   RO         1079    i.ble_lbs_on_ble_evt  ble_lbs.o
    0x000274d6   0x000274d6   0x0000002e   Code   RO         1080    i.ble_lbs_on_button_change  ble_lbs.o
    0x00027504   0x00027504   0x00000008   Code   RO          869    i.ble_srv_is_notification_enabled  ble_srv_common.o
    0x0002750c   0x0002750c   0x00000054   Code   RO          360    i.bsp_board_init    boards.o
    0x00027560   0x00027560   0x00000010   Code   RO          363    i.bsp_board_led_off  boards.o
    0x00027570   0x00027570   0x00000010   Code   RO          364    i.bsp_board_led_on  boards.o
    0x00027580   0x00027580   0x00000012   Code   RO          366    i.bsp_board_leds_off  boards.o
    0x00027592   0x00027592   0x00000002   PAD
    0x00027594   0x00027594   0x00000090   Code   RO         3612    i.buf_prealloc      nrf_log_frontend.o
    0x00027624   0x00027624   0x0000002e   Code   RO         2798    i.buffer_add        nrf_fprintf_format.o
    0x00027652   0x00027652   0x00000002   PAD
    0x00027654   0x00027654   0x00000014   Code   RO         3613    i.buffer_is_empty   nrf_log_frontend.o
    0x00027668   0x00027668   0x00000078   Code   RO            8    i.button_event_handler  main.o
    0x000276e0   0x000276e0   0x00000028   Code   RO         3347    i.button_get        app_button.o
    0x00027708   0x00027708   0x0000001c   Code   RO         1811    i.channel_free      nrfx_gpiote.o
    0x00027724   0x00027724   0x00000048   Code   RO         1812    i.channel_port_alloc  nrfx_gpiote.o
    0x0002776c   0x0002776c   0x00000010   Code   RO         1813    i.channel_port_get  nrfx_gpiote.o
    0x0002777c   0x0002777c   0x00000190   Code   RO          871    i.characteristic_add  ble_srv_common.o
    0x0002790c   0x0002790c   0x00000018   Code   RO         2089    i.compare_func      app_timer2.o
    0x00027924   0x00027924   0x0000003e   Code   RO          715    i.conn_handle_list_get  ble_conn_state.o
    0x00027962   0x00027962   0x00000088   Code   RO          485    i.conn_int_encode   ble_advdata.o
    0x000279ea   0x000279ea   0x00000004   Code   RO            9    i.conn_params_error_handler  main.o
    0x000279ee   0x000279ee   0x00000002   PAD
    0x000279f0   0x000279f0   0x00000048   Code   RO          609    i.conn_params_negotiation  ble_conn_params.o
    0x00027a38   0x00027a38   0x000000c0   Code   RO          929    i.data_length_update  nrf_ble_gatt.o
    0x00027af8   0x00027af8   0x00000048   Code   RO         3348    i.detection_delay_timeout_handler  app_button.o
    0x00027b40   0x00027b40   0x00000014   Code   RO         3614    i.dropped_sat16_get  nrf_log_frontend.o
    0x00027b54   0x00027b54   0x00000014   Code   RO         2240    i.drv_rtc_compare_disable  drv_rtc.o
    0x00027b68   0x00027b68   0x0000000e   Code   RO         2242    i.drv_rtc_compare_pending  drv_rtc.o
    0x00027b76   0x00027b76   0x00000050   Code   RO         2243    i.drv_rtc_compare_set  drv_rtc.o
    0x00027bc6   0x00027bc6   0x00000008   Code   RO         2244    i.drv_rtc_counter_get  drv_rtc.o
    0x00027bce   0x00027bce   0x00000002   PAD
    0x00027bd0   0x00027bd0   0x000000d8   Code   RO         2245    i.drv_rtc_init      drv_rtc.o
    0x00027ca8   0x00027ca8   0x0000001e   Code   RO         2246    i.drv_rtc_irq_trigger  drv_rtc.o
    0x00027cc6   0x00027cc6   0x00000008   Code   RO         2248    i.drv_rtc_overflow_enable  drv_rtc.o
    0x00027cce   0x00027cce   0x00000008   Code   RO         2249    i.drv_rtc_overflow_pending  drv_rtc.o
    0x00027cd6   0x00027cd6   0x00000008   Code   RO         2250    i.drv_rtc_start     drv_rtc.o
    0x00027cde   0x00027cde   0x00000008   Code   RO         2251    i.drv_rtc_stop      drv_rtc.o
    0x00027ce6   0x00027ce6   0x000000de   Code   RO         2256    i.drv_rtc_windowed_compare_set  drv_rtc.o
    0x00027dc4   0x00027dc4   0x00000012   Code   RO         2257    i.evt_enable        drv_rtc.o
    0x00027dd6   0x00027dd6   0x00000002   PAD
    0x00027dd8   0x00027dd8   0x000000e0   Code   RO         3349    i.evt_handle        app_button.o
    0x00027eb8   0x00027eb8   0x00000014   Code   RO         2258    i.evt_pending       drv_rtc.o
    0x00027ecc   0x00027ecc   0x0000000a   Code   RO          716    i.flag_toggle       ble_conn_state.o
    0x00027ed6   0x00027ed6   0x00000002   PAD
    0x00027ed8   0x00027ed8   0x00000034   Code   RO         2090    i.get_now           app_timer2.o
    0x00027f0c   0x00027f0c   0x0000003c   Code   RO         3350    i.gpiote_event_handler  app_button.o
    0x00027f48   0x00027f48   0x00000014   Code   RO          610    i.instance_get      ble_conn_params.o
    0x00027f5c   0x00027f5c   0x000000a6   Code   RO         2799    i.int_print         nrf_fprintf_format.o
    0x00028002   0x00028002   0x00000002   PAD
    0x00028004   0x00028004   0x00000088   Code   RO         1545    i.interrupts_enable  nrfx_uarte.o
    0x0002808c   0x0002808c   0x00000034   Code   RO         3615    i.invalid_packets_omit  nrf_log_frontend.o
    0x000280c0   0x000280c0   0x00000044   Code   RO          611    i.is_conn_params_ok  ble_conn_params.o
    0x00028104   0x00028104   0x00000060   Code   RO           10    i.led_write_handler  main.o
    0x00028164   0x00028164   0x00000014   Code   RO          930    i.link_init         nrf_ble_gatt.o
    0x00028178   0x00028178   0x0000009c   Code   RO         3616    i.log_skip          nrf_log_frontend.o
    0x00028214   0x00028214   0x00000194   Code   RO           11    i.main              main.o
    0x000283a8   0x000283a8   0x00000064   Code   RO          486    i.manuf_specific_data_encode  ble_advdata.o
    0x0002840c   0x0002840c   0x0000007e   Code   RO         2901    i.memobj_op         nrf_memobj.o
    0x0002848a   0x0002848a   0x00000002   PAD
    0x0002848c   0x0002848c   0x00000030   Code   RO         3617    i.module_idx_get    nrf_log_frontend.o
    0x000284bc   0x000284bc   0x000000a6   Code   RO          487    i.name_encode       ble_advdata.o
    0x00028562   0x00028562   0x00000026   Code   RO         2515    i.nrf_atfifo_init   nrf_atfifo.o
    0x00028588   0x00028588   0x00000016   Code   RO         2516    i.nrf_atfifo_item_alloc  nrf_atfifo.o
    0x0002859e   0x0002859e   0x00000016   Code   RO         2517    i.nrf_atfifo_item_free  nrf_atfifo.o
    0x000285b4   0x000285b4   0x00000016   Code   RO         2518    i.nrf_atfifo_item_get  nrf_atfifo.o
    0x000285ca   0x000285ca   0x00000016   Code   RO         2519    i.nrf_atfifo_item_put  nrf_atfifo.o
    0x000285e0   0x000285e0   0x00000016   Code   RO         2442    i.nrf_atflags_clear  nrf_atflags.o
    0x000285f6   0x000285f6   0x00000016   Code   RO         2447    i.nrf_atflags_get   nrf_atflags.o
    0x0002860c   0x0002860c   0x00000014   Code   RO         2449    i.nrf_atflags_set   nrf_atflags.o
    0x00028620   0x00028620   0x00000006   Code   RO         2586    i.nrf_atomic_flag_clear_fetch  nrf_atomic.o
    0x00028626   0x00028626   0x00000006   Code   RO         2587    i.nrf_atomic_flag_set  nrf_atomic.o
    0x0002862c   0x0002862c   0x0000000c   Code   RO         2589    i.nrf_atomic_u32_add  nrf_atomic.o
    0x00028638   0x00028638   0x0000000c   Code   RO         2590    i.nrf_atomic_u32_and  nrf_atomic.o
    0x00028644   0x00028644   0x0000000a   Code   RO         2593    i.nrf_atomic_u32_fetch_and  nrf_atomic.o
    0x0002864e   0x0002864e   0x0000000a   Code   RO         2595    i.nrf_atomic_u32_fetch_store  nrf_atomic.o
    0x00028658   0x00028658   0x0000000c   Code   RO         2599    i.nrf_atomic_u32_or  nrf_atomic.o
    0x00028664   0x00028664   0x0000000c   Code   RO         2601    i.nrf_atomic_u32_sub  nrf_atomic.o
    0x00028670   0x00028670   0x00000044   Code   RO         2982    i.nrf_balloc_alloc  nrf_balloc.o
    0x000286b4   0x000286b4   0x00000030   Code   RO         2983    i.nrf_balloc_free   nrf_balloc.o
    0x000286e4   0x000286e4   0x00000030   Code   RO         2984    i.nrf_balloc_init   nrf_balloc.o
    0x00028714   0x00028714   0x00000010   Code   RO         1814    i.nrf_bitmask_bit_is_set  nrfx_gpiote.o
    0x00028724   0x00028724   0x00000014   Code   RO         1815    i.nrf_bitmask_bit_set  nrfx_gpiote.o
    0x00028738   0x00028738   0x00000022   Code   RO          936    i.nrf_ble_gatt_init  nrf_ble_gatt.o
    0x0002875a   0x0002875a   0x00000002   PAD
    0x0002875c   0x0002875c   0x00000150   Code   RO          937    i.nrf_ble_gatt_on_ble_evt  nrf_ble_gatt.o
    0x000288ac   0x000288ac   0x00000016   Code   RO         1031    i.nrf_ble_qwr_conn_handle_assign  nrf_ble_qwr.o
    0x000288c2   0x000288c2   0x00000024   Code   RO         1032    i.nrf_ble_qwr_init  nrf_ble_qwr.o
    0x000288e6   0x000288e6   0x000000b6   Code   RO         1033    i.nrf_ble_qwr_on_ble_evt  nrf_ble_qwr.o
    0x0002899c   0x0002899c   0x00000068   Code   RO         1704    i.nrf_drv_uart_init  nrf_drv_uart.o
    0x00028a04   0x00028a04   0x0000001a   Code   RO         2759    i.nrf_fprintf       nrf_fprintf.o
    0x00028a1e   0x00028a1e   0x00000018   Code   RO         2760    i.nrf_fprintf_buffer_flush  nrf_fprintf.o
    0x00028a36   0x00028a36   0x000001da   Code   RO         2800    i.nrf_fprintf_fmt   nrf_fprintf_format.o
    0x00028c10   0x00028c10   0x00000024   Code   RO          370    i.nrf_gpio_cfg      boards.o
    0x00028c34   0x00028c34   0x00000024   Code   RO         1347    i.nrf_gpio_cfg      nrfx_uart.o
    0x00028c58   0x00028c58   0x00000024   Code   RO         1546    i.nrf_gpio_cfg      nrfx_uarte.o
    0x00028c7c   0x00028c7c   0x00000024   Code   RO         1816    i.nrf_gpio_cfg      nrfx_gpiote.o
    0x00028ca0   0x00028ca0   0x00000012   Code   RO         1348    i.nrf_gpio_cfg_default  nrfx_uart.o
    0x00028cb2   0x00028cb2   0x00000012   Code   RO         1547    i.nrf_gpio_cfg_default  nrfx_uarte.o
    0x00028cc4   0x00028cc4   0x00000012   Code   RO         1349    i.nrf_gpio_cfg_input  nrfx_uart.o
    0x00028cd6   0x00028cd6   0x00000012   Code   RO         1548    i.nrf_gpio_cfg_input  nrfx_uarte.o
    0x00028ce8   0x00028ce8   0x00000014   Code   RO         1350    i.nrf_gpio_cfg_output  nrfx_uart.o
    0x00028cfc   0x00028cfc   0x00000014   Code   RO         1549    i.nrf_gpio_cfg_output  nrfx_uarte.o
    0x00028d10   0x00028d10   0x00000022   Code   RO         1818    i.nrf_gpio_cfg_sense_set  nrfx_gpiote.o
    0x00028d32   0x00028d32   0x00000016   Code   RO          371    i.nrf_gpio_pin_write  boards.o
    0x00028d48   0x00028d48   0x00000028   Code   RO         1819    i.nrf_gpio_ports_read  nrfx_gpiote.o
    0x00028d70   0x00028d70   0x00000014   Code   RO         1820    i.nrf_gpiote_event_clear  nrfx_gpiote.o
    0x00028d84   0x00028d84   0x00000010   Code   RO         1821    i.nrf_gpiote_event_is_set  nrfx_gpiote.o
    0x00028d94   0x00028d94   0x0000005c   Code   RO         3618    i.nrf_log_backend_add  nrf_log_frontend.o
    0x00028df0   0x00028df0   0x000000c8   Code   RO         3463    i.nrf_log_backend_serial_put  nrf_log_backend_serial.o
    0x00028eb8   0x00028eb8   0x00000002   Code   RO         3500    i.nrf_log_backend_uart_flush  nrf_log_backend_uart.o
    0x00028eba   0x00028eba   0x00000006   Code   RO         3501    i.nrf_log_backend_uart_init  nrf_log_backend_uart.o
    0x00028ec0   0x00028ec0   0x0000002c   Code   RO         3502    i.nrf_log_backend_uart_panic_set  nrf_log_backend_uart.o
    0x00028eec   0x00028eec   0x00000018   Code   RO         3503    i.nrf_log_backend_uart_put  nrf_log_backend_uart.o
    0x00028f04   0x00028f04   0x00000030   Code   RO         3620    i.nrf_log_color_id_get  nrf_log_frontend.o
    0x00028f34   0x00028f34   0x0000001c   Code   RO         3576    i.nrf_log_default_backends_init  nrf_log_default_backends.o
    0x00028f50   0x00028f50   0x00000234   Code   RO         3621    i.nrf_log_frontend_dequeue  nrf_log_frontend.o
    0x00029184   0x00029184   0x00000008   Code   RO         3623    i.nrf_log_frontend_std_0  nrf_log_frontend.o
    0x0002918c   0x0002918c   0x0000000e   Code   RO         3624    i.nrf_log_frontend_std_1  nrf_log_frontend.o
    0x0002919a   0x0002919a   0x00000010   Code   RO         3625    i.nrf_log_frontend_std_2  nrf_log_frontend.o
    0x000291aa   0x000291aa   0x00000002   PAD
    0x000291ac   0x000291ac   0x000000b0   Code   RO         3801    i.nrf_log_hexdump_entry_process  nrf_log_str_formatter.o
    0x0002925c   0x0002925c   0x0000003c   Code   RO         3630    i.nrf_log_init      nrf_log_frontend.o
    0x00029298   0x00029298   0x00000014   Code   RO         3631    i.nrf_log_module_cnt_get  nrf_log_frontend.o
    0x000292ac   0x000292ac   0x0000001c   Code   RO         3634    i.nrf_log_module_name_get  nrf_log_frontend.o
    0x000292c8   0x000292c8   0x0000002c   Code   RO         3635    i.nrf_log_panic     nrf_log_frontend.o
    0x000292f4   0x000292f4   0x000000b6   Code   RO         3802    i.nrf_log_std_entry_process  nrf_log_str_formatter.o
    0x000293aa   0x000293aa   0x00000060   Code   RO         2902    i.nrf_memobj_alloc  nrf_memobj.o
    0x0002940a   0x0002940a   0x00000032   Code   RO         2903    i.nrf_memobj_free   nrf_memobj.o
    0x0002943c   0x0002943c   0x00000008   Code   RO         2904    i.nrf_memobj_get    nrf_memobj.o
    0x00029444   0x00029444   0x00000004   Code   RO         2905    i.nrf_memobj_pool_init  nrf_memobj.o
    0x00029448   0x00029448   0x0000001e   Code   RO         2906    i.nrf_memobj_put    nrf_memobj.o
    0x00029466   0x00029466   0x00000010   Code   RO         2907    i.nrf_memobj_read   nrf_memobj.o
    0x00029476   0x00029476   0x00000010   Code   RO         2908    i.nrf_memobj_write  nrf_memobj.o
    0x00029486   0x00029486   0x00000002   PAD
    0x00029488   0x00029488   0x00000028   Code   RO         3231    i.nrf_pwr_mgmt_init  nrf_pwr_mgmt.o
    0x000294b0   0x000294b0   0x00000044   Code   RO         3232    i.nrf_pwr_mgmt_run  nrf_pwr_mgmt.o
    0x000294f4   0x000294f4   0x00000004   Code   RO           12    i.nrf_qwr_error_handler  main.o
    0x000294f8   0x000294f8   0x0000001c   Code   RO         2843    i.nrf_ringbuf_init  nrf_ringbuf.o
    0x00029514   0x00029514   0x0000000c   Code   RO         2259    i.nrf_rtc_event_clear  drv_rtc.o
    0x00029520   0x00029520   0x00000014   Code   RO         1251    i.nrf_sdh_ble_app_ram_start_get  nrf_sdh_ble.o
    0x00029534   0x00029534   0x00000100   Code   RO         1252    i.nrf_sdh_ble_default_cfg_set  nrf_sdh_ble.o
    0x00029634   0x00029634   0x00000130   Code   RO         1253    i.nrf_sdh_ble_enable  nrf_sdh_ble.o
    0x00029764   0x00029764   0x0000005c   Code   RO         1254    i.nrf_sdh_ble_evts_poll  nrf_sdh_ble.o
    0x000297c0   0x000297c0   0x00000074   Code   RO         1121    i.nrf_sdh_enable_request  nrf_sdh.o
    0x00029834   0x00029834   0x00000024   Code   RO         1122    i.nrf_sdh_evts_poll  nrf_sdh.o
    0x00029858   0x00029858   0x0000000c   Code   RO         1123    i.nrf_sdh_is_enabled  nrf_sdh.o
    0x00029864   0x00029864   0x0000003c   Code   RO         1308    i.nrf_sdh_soc_evts_poll  nrf_sdh_soc.o
    0x000298a0   0x000298a0   0x0000000a   Code   RO         3081    i.nrf_section_iter_init  nrf_section_iter.o
    0x000298aa   0x000298aa   0x00000024   Code   RO         3082    i.nrf_section_iter_item_set  nrf_section_iter.o
    0x000298ce   0x000298ce   0x00000020   Code   RO         3083    i.nrf_section_iter_next  nrf_section_iter.o
    0x000298ee   0x000298ee   0x00000022   Code   RO         3022    i.nrf_sortlist_add  nrf_sortlist.o
    0x00029910   0x00029910   0x00000006   Code   RO         3024    i.nrf_sortlist_peek  nrf_sortlist.o
    0x00029916   0x00029916   0x0000000e   Code   RO         3025    i.nrf_sortlist_pop  nrf_sortlist.o
    0x00029924   0x00029924   0x0000001e   Code   RO         3026    i.nrf_sortlist_remove  nrf_sortlist.o
    0x00029942   0x00029942   0x00000002   PAD
    0x00029944   0x00029944   0x00000038   Code   RO         2723    i.nrf_strerror_find  nrf_strerror.o
    0x0002997c   0x0002997c   0x00000014   Code   RO         2724    i.nrf_strerror_get  nrf_strerror.o
    0x00029990   0x00029990   0x0000000a   Code   RO         1351    i.nrf_uart_event_check  nrfx_uart.o
    0x0002999a   0x0002999a   0x0000000c   Code   RO         1352    i.nrf_uart_event_clear  nrfx_uart.o
    0x000299a6   0x000299a6   0x0000000c   Code   RO         1353    i.nrf_uart_int_enable_check  nrfx_uart.o
    0x000299b2   0x000299b2   0x0000000a   Code   RO         1550    i.nrf_uarte_event_check  nrfx_uarte.o
    0x000299bc   0x000299bc   0x0000000c   Code   RO         1551    i.nrf_uarte_event_clear  nrfx_uarte.o
    0x000299c8   0x000299c8   0x00000048   Code   RO         1825    i.nrfx_gpiote_in_event_disable  nrfx_gpiote.o
    0x00029a10   0x00029a10   0x000000a4   Code   RO         1826    i.nrfx_gpiote_in_event_enable  nrfx_gpiote.o
    0x00029ab4   0x00029ab4   0x000000d0   Code   RO         1827    i.nrfx_gpiote_in_init  nrfx_gpiote.o
    0x00029b84   0x00029b84   0x00000014   Code   RO         1828    i.nrfx_gpiote_in_is_set  nrfx_gpiote.o
    0x00029b98   0x00029b98   0x0000006c   Code   RO         1830    i.nrfx_gpiote_init  nrfx_gpiote.o
    0x00029c04   0x00029c04   0x00000014   Code   RO         1831    i.nrfx_gpiote_is_init  nrfx_gpiote.o
    0x00029c18   0x00029c18   0x00000010   Code   RO         1552    i.nrfx_is_in_ram    nrfx_uarte.o
    0x00029c28   0x00029c28   0x0000003a   Code   RO         1757    i.nrfx_prs_acquire  nrfx_prs.o
    0x00029c62   0x00029c62   0x00000012   Code   RO         1758    i.nrfx_prs_release  nrfx_prs.o
    0x00029c74   0x00029c74   0x00000010   Code   RO         1354    i.nrfx_uart_0_irq_handler  nrfx_uart.o
    0x00029c84   0x00029c84   0x000000d4   Code   RO         1356    i.nrfx_uart_init    nrfx_uart.o
    0x00029d58   0x00029d58   0x000000a8   Code   RO         1362    i.nrfx_uart_tx      nrfx_uart.o
    0x00029e00   0x00029e00   0x00000020   Code   RO         1364    i.nrfx_uart_tx_in_progress  nrfx_uart.o
    0x00029e20   0x00029e20   0x000000c0   Code   RO         1365    i.nrfx_uart_uninit  nrfx_uart.o
    0x00029ee0   0x00029ee0   0x00000010   Code   RO         1553    i.nrfx_uarte_0_irq_handler  nrfx_uarte.o
    0x00029ef0   0x00029ef0   0x0000006c   Code   RO         1555    i.nrfx_uarte_init   nrfx_uarte.o
    0x00029f5c   0x00029f5c   0x000000ac   Code   RO         1559    i.nrfx_uarte_tx     nrfx_uarte.o
    0x0002a008   0x0002a008   0x0000001c   Code   RO         1561    i.nrfx_uarte_tx_in_progress  nrfx_uarte.o
    0x0002a024   0x0002a024   0x000000ec   Code   RO         1562    i.nrfx_uarte_uninit  nrfx_uarte.o
    0x0002a110   0x0002a110   0x0000001c   Code   RO           13    i.on_conn_params_evt  main.o
    0x0002a12c   0x0002a12c   0x000000a8   Code   RO          938    i.on_connected_evt  nrf_ble_gatt.o
    0x0002a1d4   0x0002a1d4   0x000000ac   Code   RO          939    i.on_exchange_mtu_request_evt  nrf_ble_gatt.o
    0x0002a280   0x0002a280   0x00000018   Code   RO         1847    i.pin_in_use_by_port  nrfx_gpiote.o
    0x0002a298   0x0002a298   0x00000018   Code   RO         1848    i.pin_in_use_by_te  nrfx_gpiote.o
    0x0002a2b0   0x0002a2b0   0x0000003c   Code   RO         3804    i.postfix_process   nrf_log_str_formatter.o
    0x0002a2ec   0x0002a2ec   0x00000098   Code   RO         3805    i.prefix_process    nrf_log_str_formatter.o
    0x0002a384   0x0002a384   0x00000018   Code   RO         1759    i.prs_box_get       nrfx_prs.o
    0x0002a39c   0x0002a39c   0x0000005c   Code   RO         2091    i.rtc_irq           app_timer2.o
    0x0002a3f8   0x0002a3f8   0x00000064   Code   RO         2092    i.rtc_schedule      app_timer2.o
    0x0002a45c   0x0002a45c   0x00000074   Code   RO         2093    i.rtc_update        app_timer2.o
    0x0002a4d0   0x0002a4d0   0x00000032   Code   RO         1366    i.rx_byte           nrfx_uart.o
    0x0002a502   0x0002a502   0x00000016   Code   RO         1367    i.rx_done_event     nrfx_uart.o
    0x0002a518   0x0002a518   0x00000016   Code   RO         1563    i.rx_done_event     nrfx_uarte.o
    0x0002a52e   0x0002a52e   0x00000002   PAD
    0x0002a530   0x0002a530   0x00000030   Code   RO         1128    i.sdh_request_observer_notify  nrf_sdh.o
    0x0002a560   0x0002a560   0x0000002c   Code   RO         1129    i.sdh_state_observer_notify  nrf_sdh.o
    0x0002a58c   0x0002a58c   0x00000010   Code   RO          612    i.send_error_evt    ble_conn_params.o
    0x0002a59c   0x0002a59c   0x00000040   Code   RO         3504    i.serial_tx         nrf_log_backend_uart.o
    0x0002a5dc   0x0002a5dc   0x00000088   Code   RO          488    i.service_data_encode  ble_advdata.o
    0x0002a664   0x0002a664   0x00000030   Code   RO          873    i.set_security_req  ble_srv_common.o
    0x0002a694   0x0002a694   0x00000058   Code   RO         1131    i.softdevices_evt_irq_enable  nrf_sdh.o
    0x0002a6ec   0x0002a6ec   0x0000000c   Code   RO         2094    i.sortlist_pop      app_timer2.o
    0x0002a6f8   0x0002a6f8   0x00000030   Code   RO         3351    i.state_set         app_button.o
    0x0002a728   0x0002a728   0x0000008c   Code   RO         3637    i.std_n             nrf_log_frontend.o
    0x0002a7b4   0x0002a7b4   0x00000058   Code   RO         2095    i.timer_expire      app_timer2.o
    0x0002a80c   0x0002a80c   0x00000078   Code   RO         2096    i.timer_req_process  app_timer2.o
    0x0002a884   0x0002a884   0x00000038   Code   RO         2097    i.timer_req_schedule  app_timer2.o
    0x0002a8bc   0x0002a8bc   0x00000018   Code   RO         3352    i.timer_start       app_button.o
    0x0002a8d4   0x0002a8d4   0x00000020   Code   RO         1369    i.tx_byte           nrfx_uart.o
    0x0002a8f4   0x0002a8f4   0x0000001a   Code   RO         1370    i.tx_done_event     nrfx_uart.o
    0x0002a90e   0x0002a90e   0x0000001a   Code   RO         1564    i.tx_done_event     nrfx_uarte.o
    0x0002a928   0x0002a928   0x00000030   Code   RO         1705    i.uart_evt_handler  nrf_drv_uart.o
    0x0002a958   0x0002a958   0x0000000c   Code   RO         3505    i.uart_evt_handler  nrf_log_backend_uart.o
    0x0002a964   0x0002a964   0x00000050   Code   RO         3506    i.uart_init         nrf_log_backend_uart.o
    0x0002a9b4   0x0002a9b4   0x0000012a   Code   RO         1371    i.uart_irq_handler  nrfx_uart.o
    0x0002aade   0x0002aade   0x00000002   PAD
    0x0002aae0   0x0002aae0   0x00000030   Code   RO         1706    i.uarte_evt_handler  nrf_drv_uart.o
    0x0002ab10   0x0002ab10   0x00000112   Code   RO         1565    i.uarte_irq_handler  nrfx_uarte.o
    0x0002ac22   0x0002ac22   0x0000000a   Code   RO          489    i.uint16_encode     ble_advdata.o
    0x0002ac2c   0x0002ac2c   0x000000b4   Code   RO         2801    i.unsigned_print    nrf_fprintf_format.o
    0x0002ace0   0x0002ace0   0x00000068   Code   RO          613    i.update_timeout_handler  ble_conn_params.o
    0x0002ad48   0x0002ad48   0x00000024   Code   RO         1034    i.user_mem_reply    nrf_ble_qwr.o
    0x0002ad6c   0x0002ad6c   0x00000020   Code   RO         3353    i.usr_event         app_button.o
    0x0002ad8c   0x0002ad8c   0x00000030   Code   RO          490    i.uuid_list_encode  ble_advdata.o
    0x0002adbc   0x0002adbc   0x0000009e   Code   RO          491    i.uuid_list_sized_encode  ble_advdata.o
    0x0002ae5a   0x0002ae5a   0x00000002   PAD
    0x0002ae5c   0x0002ae5c   0x00000004   Data   RO           17    .constdata          main.o
    0x0002ae60   0x0002ae60   0x00000008   Data   RO          372    .constdata          boards.o
    0x0002ae68   0x0002ae68   0x00000016   Data   RO          940    .constdata          nrf_ble_gatt.o
    0x0002ae7e   0x0002ae7e   0x00000002   PAD
    0x0002ae80   0x0002ae80   0x00000010   Data   RO         1081    .constdata          ble_lbs.o
    0x0002ae90   0x0002ae90   0x00000010   Data   RO         1132    .constdata          nrf_sdh.o
    0x0002aea0   0x0002aea0   0x00000028   Data   RO         1133    .constdata          nrf_sdh.o
    0x0002aec8   0x0002aec8   0x00000010   Data   RO         1134    .constdata          nrf_sdh.o
    0x0002aed8   0x0002aed8   0x00000010   Data   RO         1135    .constdata          nrf_sdh.o
    0x0002aee8   0x0002aee8   0x00000020   Data   RO         1255    .constdata          nrf_sdh_ble.o
    0x0002af08   0x0002af08   0x00000010   Data   RO         1256    .constdata          nrf_sdh_ble.o
    0x0002af18   0x0002af18   0x00000010   Data   RO         1309    .constdata          nrf_sdh_soc.o
    0x0002af28   0x0002af28   0x0000000c   Data   RO         1310    .constdata          nrf_sdh_soc.o
    0x0002af34   0x0002af34   0x00000004   Data   RO         1374    .constdata          nrfx_uart.o
    0x0002af38   0x0002af38   0x00000004   Data   RO         1568    .constdata          nrfx_uarte.o
    0x0002af3c   0x0002af3c   0x00000004   Data   RO         1850    .constdata          nrfx_gpiote.o
    0x0002af40   0x0002af40   0x00000014   Data   RO         2100    .constdata          app_timer2.o
    0x0002af54   0x0002af54   0x0000013c   Data   RO         2725    .constdata          nrf_strerror.o
    0x0002b090   0x0002b090   0x00000010   Data   RO         2802    .constdata          nrf_fprintf_format.o
    0x0002b0a0   0x0002b0a0   0x00000018   Data   RO         3236    .constdata          nrf_pwr_mgmt.o
    0x0002b0b8   0x0002b0b8   0x0000000c   Data   RO         3237    .constdata          nrf_pwr_mgmt.o
    0x0002b0c4   0x0002b0c4   0x00000008   Data   RO         3356    .constdata          app_button.o
    0x0002b0cc   0x0002b0cc   0x0000000c   Data   RO         3508    .constdata          nrf_log_backend_uart.o
    0x0002b0d8   0x0002b0d8   0x00000020   Data   RO         3509    .constdata          nrf_log_backend_uart.o
    0x0002b0f8   0x0002b0f8   0x0000000c   Data   RO         3642    .constdata          nrf_log_frontend.o
    0x0002b104   0x0002b104   0x00000081   Data   RO         3933    .constdata          mc_w.l(ctype_o.o)
    0x0002b185   0x0002b185   0x00000003   PAD
    0x0002b188   0x0002b188   0x00000004   Data   RO         3934    .constdata          mc_w.l(ctype_o.o)
    0x0002b18c   0x0002b18c   0x000000a2   Data   RO          941    .conststring        nrf_ble_gatt.o
    0x0002b22e   0x0002b22e   0x00000002   PAD
    0x0002b230   0x0002b230   0x00000188   Data   RO         1257    .conststring        nrf_sdh_ble.o
    0x0002b3b8   0x0002b3b8   0x000003eb   Data   RO         2726    .conststring        nrf_strerror.o
    0x0002b7a3   0x0002b7a3   0x00000001   PAD
    0x0002b7a4   0x0002b7a4   0x00000066   Data   RO         3806    .conststring        nrf_log_str_formatter.o
    0x0002b80a   0x0002b80a   0x00000002   PAD
    0x0002b80c   0x0002b80c   0x0000000d   Data   RO          942    .conststrlit        nrf_ble_gatt.o
    0x0002b819   0x0002b819   0x00000003   PAD
    0x0002b81c   0x0002b81c   0x00000008   Data   RO         1136    .conststrlit        nrf_sdh.o
    0x0002b824   0x0002b824   0x0000000c   Data   RO         1258    .conststrlit        nrf_sdh_ble.o
    0x0002b830   0x0002b830   0x0000000c   Data   RO         1311    .conststrlit        nrf_sdh_soc.o
    0x0002b83c   0x0002b83c   0x00000005   Data   RO         1377    .conststrlit        nrfx_uart.o
    0x0002b841   0x0002b841   0x00000003   PAD
    0x0002b844   0x0002b844   0x00000006   Data   RO         1571    .conststrlit        nrfx_uarte.o
    0x0002b84a   0x0002b84a   0x00000002   PAD
    0x0002b84c   0x0002b84c   0x00000004   Data   RO         1761    .conststrlit        nrfx_prs.o
    0x0002b850   0x0002b850   0x00000007   Data   RO         1854    .conststrlit        nrfx_gpiote.o
    0x0002b857   0x0002b857   0x00000001   PAD
    0x0002b858   0x0002b858   0x0000000a   Data   RO         2101    .conststrlit        app_timer2.o
    0x0002b862   0x0002b862   0x00000002   PAD
    0x0002b864   0x0002b864   0x00000009   Data   RO         3027    .conststrlit        nrf_sortlist.o
    0x0002b86d   0x0002b86d   0x00000003   PAD
    0x0002b870   0x0002b870   0x00000009   Data   RO         3238    .conststrlit        nrf_pwr_mgmt.o
    0x0002b879   0x0002b879   0x00000003   PAD
    0x0002b87c   0x0002b87c   0x0000000b   Data   RO         3357    .conststrlit        app_button.o
    0x0002b887   0x0002b887   0x00000001   PAD
    0x0002b888   0x0002b888   0x00000011   Data   RO         3577    .conststrlit        nrf_log_default_backends.o
    0x0002b899   0x0002b899   0x00000003   PAD
    0x0002b89c   0x0002b89c   0x00000004   Data   RO         3643    .conststrlit        nrf_log_frontend.o
    0x0002b8a0   0x0002b8a0   0x00000020   Data   RO         3986    Region$$Table       anon$$obj.o
    0x0002b8c0   0x0002b8c0   0x00000010   Data   RO         3579    log_backends        nrf_log_default_backends.o
    0x0002b8d0   0x0002b8d0   0x00000008   Data   RO          943    log_const_data      nrf_ble_gatt.o
    0x0002b8d8   0x0002b8d8   0x00000008   Data   RO         1138    log_const_data      nrf_sdh.o
    0x0002b8e0   0x0002b8e0   0x00000008   Data   RO         1260    log_const_data      nrf_sdh_ble.o
    0x0002b8e8   0x0002b8e8   0x00000008   Data   RO         1312    log_const_data      nrf_sdh_soc.o
    0x0002b8f0   0x0002b8f0   0x00000008   Data   RO         1378    log_const_data      nrfx_uart.o
    0x0002b8f8   0x0002b8f8   0x00000008   Data   RO         1572    log_const_data      nrfx_uarte.o
    0x0002b900   0x0002b900   0x00000008   Data   RO         1763    log_const_data      nrfx_prs.o
    0x0002b908   0x0002b908   0x00000008   Data   RO         1855    log_const_data      nrfx_gpiote.o
    0x0002b910   0x0002b910   0x00000008   Data   RO         2104    log_const_data      app_timer2.o
    0x0002b918   0x0002b918   0x00000008   Data   RO         3028    log_const_data      nrf_sortlist.o
    0x0002b920   0x0002b920   0x00000008   Data   RO         3240    log_const_data      nrf_pwr_mgmt.o
    0x0002b928   0x0002b928   0x00000008   Data   RO         3359    log_const_data      app_button.o
    0x0002b930   0x0002b930   0x00000008   Data   RO         3646    log_const_data      nrf_log_frontend.o
    0x0002b938   0x0002b938   0x00000014   Data   RO         3647    nrf_balloc          nrf_log_frontend.o
    0x0002b94c   0x0002b94c   0x00000008   Data   RO          720    sdh_ble_observers0  ble_conn_state.o
    0x0002b954   0x0002b954   0x00000008   Data   RO           19    sdh_ble_observers1  main.o
    0x0002b95c   0x0002b95c   0x00000008   Data   RO          616    sdh_ble_observers1  ble_conn_params.o
    0x0002b964   0x0002b964   0x00000010   Data   RO           20    sdh_ble_observers2  main.o
    0x0002b974   0x0002b974   0x00000008   Data   RO           21    sdh_ble_observers3  main.o
    0x0002b97c   0x0002b97c   0x00000008   Data   RO         1261    sdh_stack_observers0  nrf_sdh_ble.o
    0x0002b984   0x0002b984   0x00000008   Data   RO         1313    sdh_stack_observers0  nrf_sdh_soc.o


    Execution Region RW_IRAM1 (Exec base: 0x20002a98, Load base: 0x0002b98c, Size: 0x00002968, Max: 0x0003d568, ABSOLUTE)

    Exec Addr    Load Addr    Size         Type   Attr      Idx    E Section Name        Object

    0x20002a98   0x0002b98c   0x0000001c   Data   RW           18    .data               main.o
    0x20002ab4   0x0002b9a8   0x00000008   Data   RW          615    .data               ble_conn_params.o
    0x20002abc   0x0002b9b0   0x00000003   Data   RW         1137    .data               nrf_sdh.o
    0x20002abf   0x0002b9b3   0x00000001   Data   RW         1259    .data               nrf_sdh_ble.o
    0x20002ac0   0x0002b9b4   0x0000000c   Data   RW         1707    .data               nrf_drv_uart.o
    0x20002acc   0x0002b9c0   0x00000008   Data   RW         1762    .data               nrfx_prs.o
    0x20002ad4   0x0002b9c8   0x00000004   PAD
    0x20002ad8   0x0002b9cc   0x00000020   Data   RW         2102    .data               app_timer2.o
    0x20002af8   0x0002b9ec   0x00000004   Data   RW         2103    .data               app_timer2.o
    0x20002afc   0x0002b9f0   0x0000000c   Data   RW         2260    .data               drv_rtc.o
    0x20002b08   0x0002b9fc   0x00000008   Data   RW         3239    .data               nrf_pwr_mgmt.o
    0x20002b10   0x0002ba04   0x00000018   Data   RW         3358    .data               app_button.o
    0x20002b28   0x0002ba1c   0x00000018   Data   RW         3510    .data               nrf_log_backend_uart.o
    0x20002b40   0x0002ba34   0x00000008   Data   RW         3578    .data               nrf_log_default_backends.o
    0x20002b48   0x0002ba3c   0x00000008   Data   RW         3644    .data               nrf_log_frontend.o
    0x20002b50   0x0002ba44   0x00000008   Data   RW         3645    .data               nrf_log_frontend.o
    0x20002b58   0x0002ba4c   0x00000040   Data   RW         3807    .data               nrf_log_str_formatter.o
    0x20002b98   0x0002ba8c   0x00000004   Data   RW         3862    .data               system_nrf52.o
    0x20002b9c        -       0x00000038   Zero   RW           14    .bss                main.o
    0x20002bd4        -       0x0000001f   Zero   RW           15    .bss                main.o
    0x20002bf3        -       0x0000001f   Zero   RW           16    .bss                main.o
    0x20002c12   0x0002ba90   0x00000006   PAD
    0x20002c18        -       0x00000050   Zero   RW          614    .bss                ble_conn_params.o
    0x20002c68        -       0x0000007c   Zero   RW          719    .bss                ble_conn_state.o
    0x20002ce4        -       0x0000002c   Zero   RW         1372    .bss                nrfx_uart.o
    0x20002d10        -       0x00000024   Zero   RW         1566    .bss                nrfx_uarte.o
    0x20002d34        -       0x0000005c   Zero   RW         1849    .bss                nrfx_gpiote.o
    0x20002d90        -       0x00000010   Zero   RW         2098    .bss                app_timer2.o
    0x20002da0        -       0x00000058   Zero   RW         2099    .bss                app_timer2.o
    0x20002df8        -       0x0000000c   Zero   RW         3128    .bss                app_util_platform.o
    0x20002e04        -       0x0000000c   Zero   RW         3235    .bss                nrf_pwr_mgmt.o
    0x20002e10        -       0x00000020   Zero   RW         3354    .bss                app_button.o
    0x20002e30        -       0x00000010   Zero   RW         3355    .bss                app_button.o
    0x20002e40        -       0x00000040   Zero   RW         3507    .bss                nrf_log_backend_uart.o
    0x20002e80        -       0x000000c0   Zero   RW         3638    .bss                nrf_log_frontend.o
    0x20002f40        -       0x00000080   Zero   RW         3639    .bss                nrf_log_frontend.o
    0x20002fc0        -       0x00000018   Zero   RW         3640    .bss                nrf_log_frontend.o
    0x20002fd8        -       0x00000424   Zero   RW         3641    .bss                nrf_log_frontend.o
    0x200033fc   0x0002ba90   0x00000004   PAD
    0x20003400        -       0x00002000   Zero   RW         3850    STACK               arm_startup_nrf52.o


==============================================================================

Image component sizes


      Code (inc. data)   RO Data    RW Data    ZI Data      Debug   Object Name

       736         74         27         24         48      17307   app_button.o
        22          0          0          0          0       4365   app_error.o
       132         46          0          0          0      30701   app_error_weak.o
       846         88         38         36        104      16201   app_timer2.o
       124         14          0          0         12       9938   app_util_platform.o
        36          8        512          0       8192        836   arm_startup_nrf52.o
      1236          0          0          0          0      95295   ble_advdata.o
       636         44          8          8         80      12631   ble_conn_params.o
       352          6          8          0        124       5485   ble_conn_state.o
       288          6         16          0          0       4143   ble_lbs.o
       456          6          0          0          0       2803   ble_srv_common.o
       192         16          8          0          0       8265   boards.o
       806         72          0         12          0      46605   drv_rtc.o
      1104        238         36         28        118     163678   main.o
       326          0          0          0          0       6807   nrf_atfifo.o
        64          0          0          0          0       3184   nrf_atflags.o
       306          0          0          0          0       7087   nrf_atomic.o
       164          0          0          0          0       7292   nrf_balloc.o
       922        272        205          0          0      35595   nrf_ble_gatt.o
       276          0          0          0          0      12289   nrf_ble_qwr.o
       200         26          0         12          0      16444   nrf_drv_uart.o
        50          0          0          0          0       2985   nrf_fprintf.o
       866          4         16          0          0       5886   nrf_fprintf_format.o
       200          0          0          0          0      10893   nrf_log_backend_serial.o
       232         44         44         24         64      15126   nrf_log_backend_uart.o
        28          4         33          8          0       2917   nrf_log_default_backends.o
      1474        114         44         16       1404      27822   nrf_log_frontend.o
       570        108        102         64          0       4852   nrf_log_str_formatter.o
       346          0          0          0          0       9103   nrf_memobj.o
       108         16         53          8         12      41254   nrf_pwr_mgmt.o
        28          0          0          0          0       1919   nrf_ringbuf.o
       384         46        104          3          0      46331   nrf_sdh.o
       672        230        468          1          0       6641   nrf_sdh_ble.o
        60          4         56          0          0       3464   nrf_sdh_soc.o
        78          0          0          0          0       3764   nrf_section_iter.o
        84          0         17          0          0       4341   nrf_sortlist.o
        76         10       1319          0          0       2215   nrf_strerror.o
      1294         98         19          0         92      60618   nrfx_gpiote.o
       112         16         12          8          0       3708   nrfx_prs.o
      1310         42         17          0         44      60240   nrfx_uart.o
      1284         42         18          0         36      22939   nrfx_uarte.o
       812         72          0          4          0      11715   system_nrf52.o

    ----------------------------------------------------------------------
     19332       1766       3240        260      10340     855684   Object Totals
         0          0         32          0          0          0   (incl. Generated)
        40          0         28          4         10          0   (incl. Padding)

    ----------------------------------------------------------------------

      Code (inc. data)   RO Data    RW Data    ZI Data      Debug   Library Member Name

         8          4        133          0          0         68   ctype_o.o
         0          0          0          0          0          0   entry.o
         0          0          0          0          0          0   entry10a.o
         0          0          0          0          0          0   entry11a.o
         8          4          0          0          0          0   entry2.o
         4          0          0          0          0          0   entry5.o
         0          0          0          0          0          0   entry7b.o
         0          0          0          0          0          0   entry8b.o
         8          4          0          0          0          0   entry9a.o
        30          0          0          0          0          0   handlers.o
        36          8          0          0          0         68   init.o
        30          0          0          0          0         68   llshl.o
        36          0          0          0          0         68   memcpya.o
        36          0          0          0          0        108   memseta.o
        14          0          0          0          0         68   strlen.o

    ----------------------------------------------------------------------
       216         20        136          0          0        448   Library Totals
         6          0          3          0          0          0   (incl. Padding)

    ----------------------------------------------------------------------

      Code (inc. data)   RO Data    RW Data    ZI Data      Debug   Library Name

       210         20        133          0          0        448   mc_w.l

    ----------------------------------------------------------------------
       216         20        136          0          0        448   Library Totals

    ----------------------------------------------------------------------

==============================================================================


      Code (inc. data)   RO Data    RW Data    ZI Data      Debug   

     19548       1786       3376        260      10340     832232   Grand Totals
     19548       1786       3376        260      10340     832232   ELF Image Totals
     19548       1786       3376        260          0          0   ROM Totals

==============================================================================

    Total RO  Size (Code + RO Data)                22924 (  22.39kB)
    Total RW  Size (RW Data + ZI Data)             10600 (  10.35kB)
    Total ROM Size (Code + RO Data + RW Data)      23184 (  22.64kB)

==============================================================================

